{
  "contractName": "Credit",
  "abi": [
    {
      "inputs": [
        {
          "internalType": "uint256",
          "name": "_loanAmount",
          "type": "uint256"
        },
        {
          "internalType": "uint256",
          "name": "_interestRate",
          "type": "uint256"
        },
        {
          "internalType": "uint256",
          "name": "_loanDurationInDays",
          "type": "uint256"
        },
        {
          "internalType": "address",
          "name": "borrowerAddress",
          "type": "address"
        }
      ],
      "stateMutability": "nonpayable",
      "type": "constructor"
    },
    {
      "inputs": [],
      "name": "active",
      "outputs": [
        {
          "internalType": "bool",
          "name": "",
          "type": "bool"
        }
      ],
      "stateMutability": "view",
      "type": "function"
    },
    {
      "inputs": [],
      "name": "borrower",
      "outputs": [
        {
          "internalType": "address payable",
          "name": "",
          "type": "address"
        }
      ],
      "stateMutability": "view",
      "type": "function"
    },
    {
      "inputs": [],
      "name": "interestRate",
      "outputs": [
        {
          "internalType": "uint256",
          "name": "",
          "type": "uint256"
        }
      ],
      "stateMutability": "view",
      "type": "function"
    },
    {
      "inputs": [],
      "name": "isFraudulent",
      "outputs": [
        {
          "internalType": "bool",
          "name": "",
          "type": "bool"
        }
      ],
      "stateMutability": "view",
      "type": "function"
    },
    {
      "inputs": [
        {
          "internalType": "address",
          "name": "",
          "type": "address"
        }
      ],
      "name": "lenders",
      "outputs": [
        {
          "internalType": "bool",
          "name": "",
          "type": "bool"
        }
      ],
      "stateMutability": "view",
      "type": "function"
    },
    {
      "inputs": [
        {
          "internalType": "address",
          "name": "",
          "type": "address"
        }
      ],
      "name": "lendersInvestedAmount",
      "outputs": [
        {
          "internalType": "uint256",
          "name": "",
          "type": "uint256"
        }
      ],
      "stateMutability": "view",
      "type": "function"
    },
    {
      "inputs": [],
      "name": "loanAmount",
      "outputs": [
        {
          "internalType": "uint256",
          "name": "",
          "type": "uint256"
        }
      ],
      "stateMutability": "view",
      "type": "function"
    },
    {
      "inputs": [],
      "name": "loanEndTime",
      "outputs": [
        {
          "internalType": "uint256",
          "name": "",
          "type": "uint256"
        }
      ],
      "stateMutability": "view",
      "type": "function"
    },
    {
      "inputs": [],
      "name": "state",
      "outputs": [
        {
          "internalType": "enum Credit.State",
          "name": "",
          "type": "uint8"
        }
      ],
      "stateMutability": "view",
      "type": "function"
    },
    {
      "inputs": [],
      "name": "invest",
      "outputs": [],
      "stateMutability": "payable",
      "type": "function"
    },
    {
      "inputs": [],
      "name": "withdraw",
      "outputs": [],
      "stateMutability": "nonpayable",
      "type": "function"
    },
    {
      "inputs": [],
      "name": "repay",
      "outputs": [],
      "stateMutability": "payable",
      "type": "function"
    },
    {
      "inputs": [],
      "name": "getRefund",
      "outputs": [],
      "stateMutability": "nonpayable",
      "type": "function"
    },
    {
      "inputs": [],
      "name": "getCreditDetails",
      "outputs": [
        {
          "internalType": "address",
          "name": "_borrower",
          "type": "address"
        },
        {
          "internalType": "uint256",
          "name": "_loanAmount",
          "type": "uint256"
        },
        {
          "internalType": "uint256",
          "name": "_interest",
          "type": "uint256"
        },
        {
          "internalType": "uint256",
          "name": "endTime",
          "type": "uint256"
        }
      ],
      "stateMutability": "view",
      "type": "function"
    },
    {
      "inputs": [],
      "name": "toggleActive",
      "outputs": [],
      "stateMutability": "nonpayable",
      "type": "function"
    },
    {
      "inputs": [],
      "name": "sendEther",
      "outputs": [],
      "stateMutability": "payable",
      "type": "function"
    }
  ],
  "bytecode": "0x608060405260008060006101000a81548160ff021916908360038111156200002c576200002b62000129565b5b02179055506000600460016101000a81548160ff0219169083151502179055503480156200005957600080fd5b50604051620012763803806200127683398181016040528101906200007f9190620001fd565b80600060016101000a81548173ffffffffffffffffffffffffffffffffffffffff021916908373ffffffffffffffffffffffffffffffffffffffff16021790555060008060006101000a81548160ff02191690836003811115620000e857620000e762000129565b5b0217905550836001819055508260028190555062015180826200010c91906200029e565b42620001199190620002e9565b6003819055505050505062000324565b7f4e487b7100000000000000000000000000000000000000000000000000000000600052602160045260246000fd5b600080fd5b6000819050919050565b62000172816200015d565b81146200017e57600080fd5b50565b600081519050620001928162000167565b92915050565b600073ffffffffffffffffffffffffffffffffffffffff82169050919050565b6000620001c58262000198565b9050919050565b620001d781620001b8565b8114620001e357600080fd5b50565b600081519050620001f781620001cc565b92915050565b600080600080608085870312156200021a576200021962000158565b5b60006200022a8782880162000181565b94505060206200023d8782880162000181565b9350506040620002508782880162000181565b92505060606200026387828801620001e6565b91505092959194509250565b7f4e487b7100000000000000000000000000000000000000000000000000000000600052601160045260246000fd5b6000620002ab826200015d565b9150620002b8836200015d565b9250828202620002c8816200015d565b91508282048414831517620002e257620002e16200026f565b5b5092915050565b6000620002f6826200015d565b915062000303836200015d565b92508282019050808211156200031e576200031d6200026f565b5b92915050565b610f4280620003346000396000f3fe6080604052600436106100f35760003560e01c80637c3a00fd1161008a578063c19d93fb11610059578063c19d93fb14610293578063d28de3c5146102be578063e8b5e51f146102e9578063fbaa78f3146102f3576100f3565b80637c3a00fd146101fb5780637df1f1b9146102265780639d585f7f14610251578063b2d5ae441461027c576100f3565b80633660c095116100c65780633660c095146101815780633ccfd60b146101af578063402d8883146101c65780634561dd11146101d0576100f3565b806302fb0c5e146100f85780630e29df221461012357806328fd10d71461012d57806329c68dc11461016a575b600080fd5b34801561010457600080fd5b5061010d610330565b60405161011a9190610ae9565b60405180910390f35b61012b610343565b005b34801561013957600080fd5b50610154600480360381019061014f9190610b67565b610345565b6040516101619190610ae9565b60405180910390f35b34801561017657600080fd5b5061017f610365565b005b34801561018d57600080fd5b506101966103eb565b6040516101a69493929190610bbc565b60405180910390f35b3480156101bb57600080fd5b506101c461042b565b005b6101ce610521565b005b3480156101dc57600080fd5b506101e561070f565b6040516101f29190610c01565b60405180910390f35b34801561020757600080fd5b50610210610715565b60405161021d9190610c01565b60405180910390f35b34801561023257600080fd5b5061023b61071b565b6040516102489190610c3d565b60405180910390f35b34801561025d57600080fd5b50610266610741565b6040516102739190610c01565b60405180910390f35b34801561028857600080fd5b50610291610747565b005b34801561029f57600080fd5b506102a8610997565b6040516102b59190610ccf565b60405180910390f35b3480156102ca57600080fd5b506102d36109a8565b6040516102e09190610ae9565b60405180910390f35b6102f16109bb565b005b3480156102ff57600080fd5b5061031a60048036038101906103159190610b67565b610ab6565b6040516103279190610c01565b60405180910390f35b600460019054906101000a900460ff1681565b565b60056020528060005260406000206000915054906101000a900460ff1681565b600060019054906101000a900473ffffffffffffffffffffffffffffffffffffffff1673ffffffffffffffffffffffffffffffffffffffff163373ffffffffffffffffffffffffffffffffffffffff16146103bf57600080fd5b600460019054906101000a900460ff1615600460016101000a81548160ff021916908315150217905550565b600080600080600060019054906101000a900473ffffffffffffffffffffffffffffffffffffffff16600154600254600354935093509350935090919293565b600060019054906101000a900473ffffffffffffffffffffffffffffffffffffffff1673ffffffffffffffffffffffffffffffffffffffff163373ffffffffffffffffffffffffffffffffffffffff161461048557600080fd5b4760018190555060016000806101000a81548160ff021916908360038111156104b1576104b0610c58565b5b0217905550600060019054906101000a900473ffffffffffffffffffffffffffffffffffffffff1673ffffffffffffffffffffffffffffffffffffffff166108fc479081150290604051600060405180830381858888f1935050505015801561051e573d6000803e3d6000fd5b50565b3373ffffffffffffffffffffffffffffffffffffffff16600060019054906101000a900473ffffffffffffffffffffffffffffffffffffffff1673ffffffffffffffffffffffffffffffffffffffff161461057b57600080fd5b6001600381111561058f5761058e610c58565b5b60008054906101000a900460ff1660038111156105af576105ae610c58565b5b146105b957600080fd5b60646002546001546105cb9190610d19565b6105d59190610d8a565b6001546105e29190610dbb565b341015610624576040517f08c379a000000000000000000000000000000000000000000000000000000000815260040161061b90610e4c565b60405180910390fd5b600354421115610669576040517f08c379a000000000000000000000000000000000000000000000000000000000815260040161066090610eb8565b60405180910390fd5b600047346106779190610ed8565b9050600060019054906101000a900473ffffffffffffffffffffffffffffffffffffffff1673ffffffffffffffffffffffffffffffffffffffff166108fc829081150290604051600060405180830381858888f193505050501580156106e1573d6000803e3d6000fd5b5060036000806101000a81548160ff0219169083600381111561070757610706610c58565b5b021790555050565b60035481565b60025481565b600060019054906101000a900473ffffffffffffffffffffffffffffffffffffffff1681565b60015481565b60038081111561075a57610759610c58565b5b60008054906101000a900460ff16600381111561077a57610779610c58565b5b1461078457600080fd5b60003390506000600660008373ffffffffffffffffffffffffffffffffffffffff1673ffffffffffffffffffffffffffffffffffffffff16815260200190815260200160002054116107d557600080fd5b600060646002546107e69190610d8a565b600660008473ffffffffffffffffffffffffffffffffffffffff1673ffffffffffffffffffffffffffffffffffffffff168152602001908152602001600020546108309190610d19565b600660008473ffffffffffffffffffffffffffffffffffffffff1673ffffffffffffffffffffffffffffffffffffffff1681526020019081526020016000205461087a9190610dbb565b9050600047036108af5760026000806101000a81548160ff021916908360038111156108a9576108a8610c58565b5b02179055505b6000600560008473ffffffffffffffffffffffffffffffffffffffff1673ffffffffffffffffffffffffffffffffffffffff16815260200190815260200160002060006101000a81548160ff0219169083151502179055508173ffffffffffffffffffffffffffffffffffffffff166108fc829081150290604051600060405180830381858888f1935050505015801561094d573d6000803e3d6000fd5b506000600660008473ffffffffffffffffffffffffffffffffffffffff1673ffffffffffffffffffffffffffffffffffffffff168152602001908152602001600020819055505050565b60008054906101000a900460ff1681565b600460009054906101000a900460ff1681565b60001515600560003373ffffffffffffffffffffffffffffffffffffffff1673ffffffffffffffffffffffffffffffffffffffff16815260200190815260200160002060009054906101000a900460ff16151514610a1857600080fd5b6001600560003373ffffffffffffffffffffffffffffffffffffffff1673ffffffffffffffffffffffffffffffffffffffff16815260200190815260200160002060006101000a81548160ff02191690831515021790555034600660003373ffffffffffffffffffffffffffffffffffffffff1673ffffffffffffffffffffffffffffffffffffffff16815260200190815260200160002081905550565b60066020528060005260406000206000915090505481565b60008115159050919050565b610ae381610ace565b82525050565b6000602082019050610afe6000830184610ada565b92915050565b600080fd5b600073ffffffffffffffffffffffffffffffffffffffff82169050919050565b6000610b3482610b09565b9050919050565b610b4481610b29565b8114610b4f57600080fd5b50565b600081359050610b6181610b3b565b92915050565b600060208284031215610b7d57610b7c610b04565b5b6000610b8b84828501610b52565b91505092915050565b610b9d81610b29565b82525050565b6000819050919050565b610bb681610ba3565b82525050565b6000608082019050610bd16000830187610b94565b610bde6020830186610bad565b610beb6040830185610bad565b610bf86060830184610bad565b95945050505050565b6000602082019050610c166000830184610bad565b92915050565b6000610c2782610b09565b9050919050565b610c3781610c1c565b82525050565b6000602082019050610c526000830184610c2e565b92915050565b7f4e487b7100000000000000000000000000000000000000000000000000000000600052602160045260246000fd5b60048110610c9857610c97610c58565b5b50565b6000819050610ca982610c87565b919050565b6000610cb982610c9b565b9050919050565b610cc981610cae565b82525050565b6000602082019050610ce46000830184610cc0565b92915050565b7f4e487b7100000000000000000000000000000000000000000000000000000000600052601160045260246000fd5b6000610d2482610ba3565b9150610d2f83610ba3565b9250828202610d3d81610ba3565b91508282048414831517610d5457610d53610cea565b5b5092915050565b7f4e487b7100000000000000000000000000000000000000000000000000000000600052601260045260246000fd5b6000610d9582610ba3565b9150610da083610ba3565b925082610db057610daf610d5b565b5b828204905092915050565b6000610dc682610ba3565b9150610dd183610ba3565b9250828201905080821115610de957610de8610cea565b5b92915050565b600082825260208201905092915050565b7f5061796d656e7420616d6f756e7420697320696e636f72726563740000000000600082015250565b6000610e36601b83610def565b9150610e4182610e00565b602082019050919050565b60006020820190508181036000830152610e6581610e29565b9050919050565b7f4c6f616e2068617320616c726561647920657870697265640000000000000000600082015250565b6000610ea2601883610def565b9150610ead82610e6c565b602082019050919050565b60006020820190508181036000830152610ed181610e95565b9050919050565b6000610ee382610ba3565b9150610eee83610ba3565b9250828203905081811115610f0657610f05610cea565b5b9291505056fea26469706673582212200a5d3364bf315046b238c30a31bec5c3951125c7a33a68adaad8247fd2c56d1064736f6c63430008130033",
  "immutableReferences": {},
  "source": "// SPDX-License-Identifier: MIT\r\npragma solidity >0.7.0;\r\n\r\n\r\ncontract Credit {\r\n\r\n    enum State { investment, repayment, expired ,repaymentComplete }\r\n    State public state = State.investment;\r\n\r\n    // address payable public lender;\r\n    address payable public borrower;\r\n    uint public loanAmount;\r\n    uint public interestRate;\r\n    uint public loanEndTime;\r\n    bool public isFraudulent;\r\n    bool public active = false;\r\n    //lenders of the contract\r\n    mapping(address   => bool)  public lenders;\r\n\r\n    mapping(address  => uint) public lendersInvestedAmount;\r\n\r\n\r\n    constructor(uint256 _loanAmount ,uint _interestRate ,uint _loanDurationInDays ,address borrowerAddress ) {\r\n        borrower = payable(borrowerAddress);\r\n        //  require(msg.value >= _loanAmount, \"Not enough ether sent to cover loan amount\");\r\n        // borrower = payable(_borrower);\r\n        state = State.investment;\r\n        loanAmount = _loanAmount;\r\n        interestRate = _interestRate;\r\n        loanEndTime = block.timestamp + (_loanDurationInDays * 1 days);\r\n    }\r\n\r\n\r\n    //invest in the contract\r\n    function invest() public payable {\r\n\r\n       require(lenders[msg.sender]==false);\r\n\r\n        lenders[msg.sender] = true;\r\n        lendersInvestedAmount[msg.sender] = msg.value ;\r\n        \r\n\r\n    }\r\n\r\n\r\n    function withdraw()  public {\r\n\r\n        require(msg.sender == borrower);\r\n        // require(isFraudulent == false);\r\n        loanAmount = address(this).balance;\r\n        state = State.repayment;\r\n        borrower.transfer(address(this).balance);\r\n    }\r\n\r\n    function repay() external payable {\r\n\r\n        require(borrower==msg.sender);\r\n        require(state == State.repayment);\r\n        require(msg.value >= loanAmount + ((loanAmount * interestRate) / 100), \"Payment amount is incorrect\");\r\n        require(block.timestamp <= loanEndTime, \"Loan has already expired\");\r\n\r\n        uint extra = 0;\r\n        extra = msg.value - address(this).balance;\r\n        borrower.transfer(extra);\r\n        \r\n        state = State.repaymentComplete;\r\n        // lender.transfer(msg.value);\r\n\r\n    }\r\n\r\n    function getRefund() public{\r\n\r\n        require(state==State.repaymentComplete);\r\n        address payable lender = payable(msg.sender);\r\n        require(lendersInvestedAmount[lender]>0);\r\n\r\n        uint amount = lendersInvestedAmount[lender]+(lendersInvestedAmount[lender]*(interestRate/100));\r\n\r\n        if(address(this).balance==0 ){\r\n            state = State.expired;\r\n        }\r\n        lenders[lender] = false;\r\n        lender.transfer(amount);\r\n        lendersInvestedAmount[lender] = 0;\r\n    }\r\n\r\n    function getCreditDetails() public view returns(address _borrower ,uint _loanAmount ,uint _interest ,uint endTime){\r\n        return(\r\n            borrower,\r\n            loanAmount,\r\n            interestRate,\r\n            loanEndTime\r\n        );\r\n    }\r\n\r\n    function toggleActive() public {\r\n        require(msg.sender==borrower);\r\n        active=!active;\r\n    }\r\n    \r\n\r\n    //testing functions\r\n    function sendEther()public payable{\r\n\r\n    }\r\n\r\n}\r\n",
  "sourcePath": "C:\\Users\\Chaitnya\\OneDrive\\Desktop\\block-chain\\testing\\contracts\\Credit.sol",
  "compiler": {
    "name": "solc",
    "version": "0.8.19+commit.7dd6d404.Emscripten.clang"
  },
  "schemaVersion": "3.4.13",
  "updatedAt": "2023-03-25T17:19:33.315Z",
  "networkType": "ethereum",
  "devdoc": {
    "kind": "dev",
    "methods": {},
    "version": 1
  },
  "userdoc": {
    "kind": "user",
    "methods": {},
    "version": 1
  }
}