{
  "contractName": "Credit",
  "abi": [
    {
      "inputs": [
        {
          "internalType": "uint256",
          "name": "_loanAmount",
          "type": "uint256"
        },
        {
          "internalType": "uint256",
          "name": "_interestRate",
          "type": "uint256"
        },
        {
          "internalType": "uint256",
          "name": "_loanDurationInDays",
          "type": "uint256"
        },
        {
          "internalType": "address",
          "name": "borrowerAddress",
          "type": "address"
        }
      ],
      "stateMutability": "nonpayable",
      "type": "constructor"
    },
    {
      "inputs": [],
      "name": "active",
      "outputs": [
        {
          "internalType": "bool",
          "name": "",
          "type": "bool"
        }
      ],
      "stateMutability": "view",
      "type": "function"
    },
    {
      "inputs": [],
      "name": "borrower",
      "outputs": [
        {
          "internalType": "address payable",
          "name": "",
          "type": "address"
        }
      ],
      "stateMutability": "view",
      "type": "function"
    },
    {
      "inputs": [],
      "name": "interestRate",
      "outputs": [
        {
          "internalType": "uint256",
          "name": "",
          "type": "uint256"
        }
      ],
      "stateMutability": "view",
      "type": "function"
    },
    {
      "inputs": [],
      "name": "isFraudulent",
      "outputs": [
        {
          "internalType": "bool",
          "name": "",
          "type": "bool"
        }
      ],
      "stateMutability": "view",
      "type": "function"
    },
    {
      "inputs": [
        {
          "internalType": "address",
          "name": "",
          "type": "address"
        }
      ],
      "name": "lenders",
      "outputs": [
        {
          "internalType": "bool",
          "name": "",
          "type": "bool"
        }
      ],
      "stateMutability": "view",
      "type": "function"
    },
    {
      "inputs": [
        {
          "internalType": "address",
          "name": "",
          "type": "address"
        }
      ],
      "name": "lendersInvestedAmount",
      "outputs": [
        {
          "internalType": "uint256",
          "name": "",
          "type": "uint256"
        }
      ],
      "stateMutability": "view",
      "type": "function"
    },
    {
      "inputs": [],
      "name": "loanAmount",
      "outputs": [
        {
          "internalType": "uint256",
          "name": "",
          "type": "uint256"
        }
      ],
      "stateMutability": "view",
      "type": "function"
    },
    {
      "inputs": [],
      "name": "loanEndTime",
      "outputs": [
        {
          "internalType": "uint256",
          "name": "",
          "type": "uint256"
        }
      ],
      "stateMutability": "view",
      "type": "function"
    },
    {
      "inputs": [],
      "name": "state",
      "outputs": [
        {
          "internalType": "enum Credit.State",
          "name": "",
          "type": "uint8"
        }
      ],
      "stateMutability": "view",
      "type": "function"
    },
    {
      "inputs": [],
      "name": "invest",
      "outputs": [],
      "stateMutability": "payable",
      "type": "function"
    },
    {
      "inputs": [],
      "name": "withdraw",
      "outputs": [],
      "stateMutability": "nonpayable",
      "type": "function"
    },
    {
      "inputs": [],
      "name": "repay",
      "outputs": [],
      "stateMutability": "payable",
      "type": "function"
    },
    {
      "inputs": [],
      "name": "getRefund",
      "outputs": [],
      "stateMutability": "nonpayable",
      "type": "function"
    },
    {
      "inputs": [],
      "name": "getCreditDetails",
      "outputs": [
        {
          "internalType": "address",
          "name": "_borrower",
          "type": "address"
        },
        {
          "internalType": "uint256",
          "name": "_loanAmount",
          "type": "uint256"
        },
        {
          "internalType": "uint256",
          "name": "_interest",
          "type": "uint256"
        },
        {
          "internalType": "uint256",
          "name": "endTime",
          "type": "uint256"
        }
      ],
      "stateMutability": "view",
      "type": "function"
    },
    {
      "inputs": [],
      "name": "toggleActive",
      "outputs": [],
      "stateMutability": "nonpayable",
      "type": "function"
    },
    {
      "inputs": [],
      "name": "sendEther",
      "outputs": [],
      "stateMutability": "payable",
      "type": "function"
    }
  ],
  "bytecode": "0x608060405260008060006101000a81548160ff021916908360038111156200002c576200002b62000168565b5b02179055506001600460016101000a81548160ff0219169083151502179055503480156200005957600080fd5b506040516200155e3803806200155e83398181016040528101906200007f91906200023c565b80600060016101000a81548173ffffffffffffffffffffffffffffffffffffffff021916908373ffffffffffffffffffffffffffffffffffffffff16021790555033600460026101000a81548173ffffffffffffffffffffffffffffffffffffffff021916908373ffffffffffffffffffffffffffffffffffffffff16021790555060008060006101000a81548160ff0219169083600381111562000129576200012862000168565b5b02179055508360018190555082600281905550603c826200014b9190620002dd565b4262000158919062000328565b6003819055505050505062000363565b7f4e487b7100000000000000000000000000000000000000000000000000000000600052602160045260246000fd5b600080fd5b6000819050919050565b620001b1816200019c565b8114620001bd57600080fd5b50565b600081519050620001d181620001a6565b92915050565b600073ffffffffffffffffffffffffffffffffffffffff82169050919050565b60006200020482620001d7565b9050919050565b6200021681620001f7565b81146200022257600080fd5b50565b60008151905062000236816200020b565b92915050565b6000806000806080858703121562000259576200025862000197565b5b60006200026987828801620001c0565b94505060206200027c87828801620001c0565b93505060406200028f87828801620001c0565b9250506060620002a28782880162000225565b91505092959194509250565b7f4e487b7100000000000000000000000000000000000000000000000000000000600052601160045260246000fd5b6000620002ea826200019c565b9150620002f7836200019c565b925082820262000307816200019c565b91508282048414831517620003215762000320620002ae565b5b5092915050565b600062000335826200019c565b915062000342836200019c565b92508282019050808211156200035d576200035c620002ae565b5b92915050565b6111eb80620003736000396000f3fe6080604052600436106100f35760003560e01c80637c3a00fd1161008a578063c19d93fb11610059578063c19d93fb14610293578063d28de3c5146102be578063e8b5e51f146102e9578063fbaa78f3146102f3576100f3565b80637c3a00fd146101fb5780637df1f1b9146102265780639d585f7f14610251578063b2d5ae441461027c576100f3565b80633660c095116100c65780633660c095146101815780633ccfd60b146101af578063402d8883146101c65780634561dd11146101d0576100f3565b806302fb0c5e146100f85780630e29df221461012357806328fd10d71461012d57806329c68dc11461016a575b600080fd5b34801561010457600080fd5b5061010d610330565b60405161011a9190610ca1565b60405180910390f35b61012b610343565b005b34801561013957600080fd5b50610154600480360381019061014f9190610d1f565b610345565b6040516101619190610ca1565b60405180910390f35b34801561017657600080fd5b5061017f610365565b005b34801561018d57600080fd5b506101966103eb565b6040516101a69493929190610d74565b60405180910390f35b3480156101bb57600080fd5b506101c461042b565b005b6101ce610521565b005b3480156101dc57600080fd5b506101e5610815565b6040516101f29190610db9565b60405180910390f35b34801561020757600080fd5b5061021061081b565b60405161021d9190610db9565b60405180910390f35b34801561023257600080fd5b5061023b610821565b6040516102489190610df5565b60405180910390f35b34801561025d57600080fd5b50610266610847565b6040516102739190610db9565b60405180910390f35b34801561028857600080fd5b5061029161084d565b005b34801561029f57600080fd5b506102a8610a4b565b6040516102b59190610e87565b60405180910390f35b3480156102ca57600080fd5b506102d3610a5c565b6040516102e09190610ca1565b60405180910390f35b6102f1610a6f565b005b3480156102ff57600080fd5b5061031a60048036038101906103159190610d1f565b610c6e565b6040516103279190610db9565b60405180910390f35b600460019054906101000a900460ff1681565b565b60056020528060005260406000206000915054906101000a900460ff1681565b600060019054906101000a900473ffffffffffffffffffffffffffffffffffffffff1673ffffffffffffffffffffffffffffffffffffffff163373ffffffffffffffffffffffffffffffffffffffff16146103bf57600080fd5b600460019054906101000a900460ff1615600460016101000a81548160ff021916908315150217905550565b600080600080600060019054906101000a900473ffffffffffffffffffffffffffffffffffffffff16600154600254600354935093509350935090919293565b600060019054906101000a900473ffffffffffffffffffffffffffffffffffffffff1673ffffffffffffffffffffffffffffffffffffffff163373ffffffffffffffffffffffffffffffffffffffff161461048557600080fd5b60016000806101000a81548160ff021916908360038111156104aa576104a9610e10565b5b021790555047600181905550600060019054906101000a900473ffffffffffffffffffffffffffffffffffffffff1673ffffffffffffffffffffffffffffffffffffffff166108fc479081150290604051600060405180830381858888f1935050505015801561051e573d6000803e3d6000fd5b50565b3373ffffffffffffffffffffffffffffffffffffffff16600060019054906101000a900473ffffffffffffffffffffffffffffffffffffffff1673ffffffffffffffffffffffffffffffffffffffff161461057b57600080fd5b6001600381111561058f5761058e610e10565b5b60008054906101000a900460ff1660038111156105af576105ae610e10565b5b146105b957600080fd5b60646002546001546105cb9190610ed1565b6105d59190610f42565b6001546105e29190610f73565b341015610624576040517f08c379a000000000000000000000000000000000000000000000000000000000815260040161061b90611004565b60405180910390fd5b6000600460029054906101000a900473ffffffffffffffffffffffffffffffffffffffff16905060035442116107035760006002426003546106669190611024565b6106709190611062565b90508173ffffffffffffffffffffffffffffffffffffffff1663cdc13e1782600060019054906101000a900473ffffffffffffffffffffffffffffffffffffffff166040518363ffffffff1660e01b81526004016106cf929190611148565b600060405180830381600087803b1580156106e957600080fd5b505af11580156106fd573d6000803e3d6000fd5b50505050505b600047346107119190611024565b9050600060019054906101000a900473ffffffffffffffffffffffffffffffffffffffff1673ffffffffffffffffffffffffffffffffffffffff166108fc829081150290604051600060405180830381858888f1935050505015801561077b573d6000803e3d6000fd5b5060036000806101000a81548160ff021916908360038111156107a1576107a0610e10565b5b02179055508173ffffffffffffffffffffffffffffffffffffffff16633a5b409d336040518263ffffffff1660e01b81526004016107df9190611171565b600060405180830381600087803b1580156107f957600080fd5b505af115801561080d573d6000803e3d6000fd5b505050505050565b60035481565b60025481565b600060019054906101000a900473ffffffffffffffffffffffffffffffffffffffff1681565b60015481565b6003808111156108605761085f610e10565b5b60008054906101000a900460ff1660038111156108805761087f610e10565b5b1461088a57600080fd5b60003390506000600660008373ffffffffffffffffffffffffffffffffffffffff1673ffffffffffffffffffffffffffffffffffffffff16815260200190815260200160002054116108db57600080fd5b60006064600254600660008573ffffffffffffffffffffffffffffffffffffffff1673ffffffffffffffffffffffffffffffffffffffff1681526020019081526020016000205461092c9190610ed1565b6109369190610f42565b9050600081600660008573ffffffffffffffffffffffffffffffffffffffff1673ffffffffffffffffffffffffffffffffffffffff168152602001908152602001600020546109859190610f73565b9050600047036109ba5760026000806101000a81548160ff021916908360038111156109b4576109b3610e10565b5b02179055505b8273ffffffffffffffffffffffffffffffffffffffff166108fc829081150290604051600060405180830381858888f19350505050158015610a00573d6000803e3d6000fd5b506000600660008573ffffffffffffffffffffffffffffffffffffffff1673ffffffffffffffffffffffffffffffffffffffff16815260200190815260200160002081905550505050565b60008054906101000a900460ff1681565b600460009054906101000a900460ff1681565b670de0b6b3a7640000341015610a8457600080fd5b600060019054906101000a900473ffffffffffffffffffffffffffffffffffffffff1673ffffffffffffffffffffffffffffffffffffffff163373ffffffffffffffffffffffffffffffffffffffff1603610ade57600080fd5b60001515600560003373ffffffffffffffffffffffffffffffffffffffff1673ffffffffffffffffffffffffffffffffffffffff16815260200190815260200160002060009054906101000a900460ff16151514610b3b57600080fd5b6001600560003373ffffffffffffffffffffffffffffffffffffffff1673ffffffffffffffffffffffffffffffffffffffff16815260200190815260200160002060006101000a81548160ff0219169083151502179055506000600460029054906101000a900473ffffffffffffffffffffffffffffffffffffffff1690508073ffffffffffffffffffffffffffffffffffffffff16635e97414433306040518363ffffffff1660e01b8152600401610bf592919061118c565b600060405180830381600087803b158015610c0f57600080fd5b505af1158015610c23573d6000803e3d6000fd5b5050505034600660003373ffffffffffffffffffffffffffffffffffffffff1673ffffffffffffffffffffffffffffffffffffffff1681526020019081526020016000208190555050565b60066020528060005260406000206000915090505481565b60008115159050919050565b610c9b81610c86565b82525050565b6000602082019050610cb66000830184610c92565b92915050565b600080fd5b600073ffffffffffffffffffffffffffffffffffffffff82169050919050565b6000610cec82610cc1565b9050919050565b610cfc81610ce1565b8114610d0757600080fd5b50565b600081359050610d1981610cf3565b92915050565b600060208284031215610d3557610d34610cbc565b5b6000610d4384828501610d0a565b91505092915050565b610d5581610ce1565b82525050565b6000819050919050565b610d6e81610d5b565b82525050565b6000608082019050610d896000830187610d4c565b610d966020830186610d65565b610da36040830185610d65565b610db06060830184610d65565b95945050505050565b6000602082019050610dce6000830184610d65565b92915050565b6000610ddf82610cc1565b9050919050565b610def81610dd4565b82525050565b6000602082019050610e0a6000830184610de6565b92915050565b7f4e487b7100000000000000000000000000000000000000000000000000000000600052602160045260246000fd5b60048110610e5057610e4f610e10565b5b50565b6000819050610e6182610e3f565b919050565b6000610e7182610e53565b9050919050565b610e8181610e66565b82525050565b6000602082019050610e9c6000830184610e78565b92915050565b7f4e487b7100000000000000000000000000000000000000000000000000000000600052601160045260246000fd5b6000610edc82610d5b565b9150610ee783610d5b565b9250828202610ef581610d5b565b91508282048414831517610f0c57610f0b610ea2565b5b5092915050565b7f4e487b7100000000000000000000000000000000000000000000000000000000600052601260045260246000fd5b6000610f4d82610d5b565b9150610f5883610d5b565b925082610f6857610f67610f13565b5b828204905092915050565b6000610f7e82610d5b565b9150610f8983610d5b565b9250828201905080821115610fa157610fa0610ea2565b5b92915050565b600082825260208201905092915050565b7f5061796d656e7420616d6f756e7420697320696e636f72726563740000000000600082015250565b6000610fee601b83610fa7565b9150610ff982610fb8565b602082019050919050565b6000602082019050818103600083015261101d81610fe1565b9050919050565b600061102f82610d5b565b915061103a83610d5b565b925082820390508181111561105257611051610ea2565b5b92915050565b6000819050919050565b600061106d82611058565b915061107883611058565b925082820261108681611058565b91507f800000000000000000000000000000000000000000000000000000000000000084146000841216156110be576110bd610ea2565b5b82820584148315176110d3576110d2610ea2565b5b5092915050565b6110e381611058565b82525050565b6000819050919050565b600061110e61110961110484610cc1565b6110e9565b610cc1565b9050919050565b6000611120826110f3565b9050919050565b600061113282611115565b9050919050565b61114281611127565b82525050565b600060408201905061115d60008301856110da565b61116a6020830184611139565b9392505050565b60006020820190506111866000830184610d4c565b92915050565b60006040820190506111a16000830185610d4c565b6111ae6020830184610d4c565b939250505056fea264697066735822122095efd1a690d88d4b85e625b12e15eff7c402565cd139fef7511c2de462e6d0c364736f6c63430008130033",
  "immutableReferences": {},
  "source": "// SPDX-License-Identifier: MIT\r\nimport './Main.sol';\r\n\r\npragma solidity >0.7.0;\r\n\r\ncontract Credit {\r\n    enum State {\r\n        investment,\r\n        repayment,\r\n        expired,\r\n        repaymentComplete\r\n    }\r\n    State public state = State.investment;\r\n\r\n    // address payable public lender;\r\n    address payable public borrower;\r\n    uint public loanAmount;\r\n    uint public interestRate;\r\n    uint public loanEndTime;\r\n    bool public isFraudulent;\r\n    bool public active = true;\r\n    address MainContractAddress;\r\n\r\n    //lenders of the contract\r\n    mapping(address => bool) public lenders;\r\n\r\n    mapping(address => uint) public lendersInvestedAmount;\r\n\r\n    constructor(\r\n        uint256 _loanAmount,\r\n        uint _interestRate,\r\n        uint _loanDurationInDays,\r\n        address borrowerAddress\r\n    ) {\r\n        borrower = payable(borrowerAddress);\r\n        MainContractAddress = msg.sender;\r\n        \r\n        state = State.investment;\r\n        loanAmount = _loanAmount; \r\n        interestRate = _interestRate;\r\n        loanEndTime = block.timestamp + (_loanDurationInDays * 1 minutes);\r\n    } \r\n\r\n    //invest in the contract\r\n    function invest() public payable {\r\n        require(msg.value >= 1 ether);\r\n        require(msg.sender != borrower);\r\n        require(lenders[msg.sender] == false);\r\n        lenders[msg.sender] = true;\r\n        Main mainContract = Main(MainContractAddress);\r\n        mainContract.addToInvestedCredits(msg.sender, address(this));\r\n\r\n        lendersInvestedAmount[msg.sender] = msg.value;\r\n    }\r\n\r\n    function withdraw() public {\r\n        require(msg.sender == borrower);\r\n        // require(isFraudulent == false);\r\n        state = State.repayment;\r\n        loanAmount = uint(address(this).balance);\r\n        borrower.transfer(address(this).balance);\r\n    }\r\n\r\n    function repay() external payable {\r\n\r\n\r\n        require(borrower == msg.sender);\r\n        require(state == State.repayment);\r\n        require(\r\n            uint(msg.value) >= loanAmount + ((loanAmount * interestRate) / 100),\r\n            \"Payment amount is incorrect\"\r\n        );\r\n\r\n        Main mainContract = Main(MainContractAddress);\r\n\r\n        if(block.timestamp<=loanEndTime){\r\n\r\n            int points = int(loanEndTime - block.timestamp)*2;\r\n            mainContract.updateCreditScore(points, borrower);\r\n\r\n        }\r\n        \r\n\r\n        uint extra = 0;\r\n        extra = msg.value - address(this).balance;\r\n        borrower.transfer(extra);\r\n\r\n        state = State.repaymentComplete;\r\n\r\n        mainContract.changeCreditStatus(msg.sender);\r\n        // lender.transfer(msg.value);\r\n    }\r\n\r\n    function getRefund() public {\r\n\r\n        require(state == State.repaymentComplete);\r\n        address payable lender = payable(msg.sender);\r\n        require(lendersInvestedAmount[lender] > 0);\r\n\r\n        uint interestAmount  = ((lendersInvestedAmount[lender] * interestRate)/100);\r\n        uint amount = lendersInvestedAmount[lender] + interestAmount;\r\n\r\n        if (address(this).balance == 0) {\r\n            state = State.expired;\r\n        }\r\n\r\n        lender.transfer(amount);\r\n    \r\n        lendersInvestedAmount[lender] = 0;\r\n    }\r\n\r\n    function getCreditDetails() public view returns (\r\n            address _borrower,\r\n            uint _loanAmount,\r\n            uint _interest,\r\n            uint endTime\r\n        )\r\n    {\r\n        return (borrower, loanAmount, interestRate, loanEndTime);\r\n    }\r\n\r\n    function toggleActive() public {\r\n        require(msg.sender == borrower);\r\n        active = !active;\r\n    }\r\n\r\n    //testing functions\r\n    function sendEther() public payable {}\r\n}\r\n",
  "sourcePath": "C:\\Users\\Chaitnya\\OneDrive\\Desktop\\block-chain\\testing\\contracts\\Credit.sol",
  "compiler": {
    "name": "solc",
    "version": "0.8.19+commit.7dd6d404.Emscripten.clang"
  },
  "schemaVersion": "3.4.13",
  "updatedAt": "2023-04-11T09:30:47.592Z",
  "networkType": "ethereum",
  "devdoc": {
    "kind": "dev",
    "methods": {},
    "version": 1
  },
  "userdoc": {
    "kind": "user",
    "methods": {},
    "version": 1
  }
}