{
  "contractName": "Main",
  "abi": [
    {
      "inputs": [],
      "stateMutability": "nonpayable",
      "type": "constructor"
    },
    {
      "inputs": [
        {
          "internalType": "uint256",
          "name": "",
          "type": "uint256"
        }
      ],
      "name": "credits",
      "outputs": [
        {
          "internalType": "contract Credit",
          "name": "",
          "type": "address"
        }
      ],
      "stateMutability": "view",
      "type": "function",
      "constant": true
    },
    {
      "inputs": [],
      "name": "owner",
      "outputs": [
        {
          "internalType": "address",
          "name": "",
          "type": "address"
        }
      ],
      "stateMutability": "view",
      "type": "function",
      "constant": true
    },
    {
      "inputs": [
        {
          "internalType": "address",
          "name": "",
          "type": "address"
        }
      ],
      "name": "users",
      "outputs": [
        {
          "internalType": "bool",
          "name": "credited",
          "type": "bool"
        },
        {
          "internalType": "contract Credit",
          "name": "activeCredit",
          "type": "address"
        },
        {
          "internalType": "bool",
          "name": "fraudStatus",
          "type": "bool"
        },
        {
          "internalType": "uint256",
          "name": "creditScore",
          "type": "uint256"
        }
      ],
      "stateMutability": "view",
      "type": "function",
      "constant": true
    },
    {
      "inputs": [
        {
          "internalType": "uint256",
          "name": "requestedAmount",
          "type": "uint256"
        },
        {
          "internalType": "uint256",
          "name": "interest",
          "type": "uint256"
        },
        {
          "internalType": "uint256",
          "name": "endDays",
          "type": "uint256"
        }
      ],
      "name": "applyForCredit",
      "outputs": [
        {
          "internalType": "contract Credit",
          "name": "_credit",
          "type": "address"
        }
      ],
      "stateMutability": "nonpayable",
      "type": "function"
    },
    {
      "inputs": [],
      "name": "getUserCredits",
      "outputs": [
        {
          "internalType": "contract Credit[]",
          "name": "",
          "type": "address[]"
        }
      ],
      "stateMutability": "view",
      "type": "function",
      "constant": true
    },
    {
      "inputs": [
        {
          "internalType": "address",
          "name": "_borrower",
          "type": "address"
        }
      ],
      "name": "setFraudStatus",
      "outputs": [
        {
          "internalType": "bool",
          "name": "",
          "type": "bool"
        }
      ],
      "stateMutability": "nonpayable",
      "type": "function"
    },
    {
      "inputs": [],
      "name": "getCredits",
      "outputs": [
        {
          "internalType": "contract Credit[]",
          "name": "",
          "type": "address[]"
        }
      ],
      "stateMutability": "view",
      "type": "function",
      "constant": true
    },
    {
      "inputs": [
        {
          "internalType": "uint256",
          "name": "points",
          "type": "uint256"
        },
        {
          "internalType": "address",
          "name": "borrower",
          "type": "address"
        }
      ],
      "name": "updateCreditScore",
      "outputs": [],
      "stateMutability": "nonpayable",
      "type": "function"
    },
    {
      "inputs": [
        {
          "internalType": "address",
          "name": "borrower",
          "type": "address"
        }
      ],
      "name": "getScore",
      "outputs": [
        {
          "internalType": "uint256",
          "name": "",
          "type": "uint256"
        }
      ],
      "stateMutability": "view",
      "type": "function",
      "constant": true
    },
    {
      "inputs": [
        {
          "internalType": "address",
          "name": "lender",
          "type": "address"
        },
        {
          "internalType": "address",
          "name": "credit",
          "type": "address"
        }
      ],
      "name": "addToInvestedCredits",
      "outputs": [],
      "stateMutability": "nonpayable",
      "type": "function"
    },
    {
      "inputs": [],
      "name": "getInvestedCredits",
      "outputs": [
        {
          "internalType": "address[]",
          "name": "",
          "type": "address[]"
        }
      ],
      "stateMutability": "view",
      "type": "function",
      "constant": true
    }
  ],
  "bytecode": "0x608060405234801561001057600080fd5b50336000806101000a81548173ffffffffffffffffffffffffffffffffffffffff021916908373ffffffffffffffffffffffffffffffffffffffff1602179055506002339080600181540180825580915050600190039060005260206000200160009091909190916101000a81548173ffffffffffffffffffffffffffffffffffffffff021916908373ffffffffffffffffffffffffffffffffffffffff16021790555061256c806100c36000396000f3fe60806040523480156200001157600080fd5b5060043610620000b85760003560e01c8063724d777f116200007b578063724d777f146200018b578063823a71af14620001ad5780638da5cb5b14620001cf578063a87430ba14620001f1578063bb9e4247146200022a578063d47875d0146200026057620000b8565b8063036a1c2214620000bd5780630874125514620000f357806308e4fd7f14620001135780632092cb3314620001495780635e974144146200016b575b600080fd5b620000db6004803603810190620000d5919062000b14565b62000296565b604051620000ea919062000bd1565b60405180910390f35b6200011160048036038101906200010b919062000c33565b620002d6565b005b6200013160048036038101906200012b919062000c7a565b62000370565b60405162000140919062000bd1565b60405180910390f35b6200015362000662565b60405162000162919062000da4565b60405180910390f35b62000189600480360381019062000183919062000dc8565b62000732565b005b62000195620007d9565b604051620001a4919062000ecc565b60405180910390f35b620001b7620008a9565b604051620001c6919062000da4565b60405180910390f35b620001d962000939565b604051620001e8919062000f01565b60405180910390f35b6200020f600480360381019062000209919062000f1e565b6200095d565b60405162000221949392919062000f7e565b60405180910390f35b62000248600480360381019062000242919062000f1e565b620009c7565b60405162000257919062000fcb565b60405180910390f35b6200027e600480360381019062000278919062000f1e565b62000a7a565b6040516200028d919062000fe8565b60405180910390f35b60038181548110620002a757600080fd5b906000526020600020016000915054906101000a900473ffffffffffffffffffffffffffffffffffffffff1681565b81600160008373ffffffffffffffffffffffffffffffffffffffff1673ffffffffffffffffffffffffffffffffffffffff1681526020019081526020016000206001015462000326919062001034565b600160008373ffffffffffffffffffffffffffffffffffffffff1673ffffffffffffffffffffffffffffffffffffffff168152602001908152602001600020600101819055505050565b6000801515600160003373ffffffffffffffffffffffffffffffffffffffff1673ffffffffffffffffffffffffffffffffffffffff16815260200190815260200160002060000160009054906101000a900460ff16151514620003d257600080fd5b60001515600160003373ffffffffffffffffffffffffffffffffffffffff1673ffffffffffffffffffffffffffffffffffffffff16815260200190815260200160002060000160159054906101000a900460ff161515146200043357600080fd5b60018060003373ffffffffffffffffffffffffffffffffffffffff1673ffffffffffffffffffffffffffffffffffffffff16815260200190815260200160002060000160006101000a81548160ff021916908315150217905550600084848433604051620004a19062000ac6565b620004b094939291906200106f565b604051809103906000f080158015620004cd573d6000803e3d6000fd5b50905080600160003373ffffffffffffffffffffffffffffffffffffffff1673ffffffffffffffffffffffffffffffffffffffff16815260200190815260200160002060000160016101000a81548173ffffffffffffffffffffffffffffffffffffffff021916908373ffffffffffffffffffffffffffffffffffffffff1602179055506003819080600181540180825580915050600190039060005260206000200160009091909190916101000a81548173ffffffffffffffffffffffffffffffffffffffff021916908373ffffffffffffffffffffffffffffffffffffffff160217905550600160003373ffffffffffffffffffffffffffffffffffffffff1673ffffffffffffffffffffffffffffffffffffffff168152602001908152602001600020600201819080600181540180825580915050600190039060005260206000200160009091909190916101000a81548173ffffffffffffffffffffffffffffffffffffffff021916908373ffffffffffffffffffffffffffffffffffffffff160217905550809150509392505050565b6060600160003373ffffffffffffffffffffffffffffffffffffffff1673ffffffffffffffffffffffffffffffffffffffff1681526020019081526020016000206002018054806020026020016040519081016040528092919081815260200182805480156200072857602002820191906000526020600020905b8160009054906101000a900473ffffffffffffffffffffffffffffffffffffffff1673ffffffffffffffffffffffffffffffffffffffff1681526020019060010190808311620006dd575b5050505050905090565b600160008373ffffffffffffffffffffffffffffffffffffffff1673ffffffffffffffffffffffffffffffffffffffff168152602001908152602001600020600301819080600181540180825580915050600190039060005260206000200160009091909190916101000a81548173ffffffffffffffffffffffffffffffffffffffff021916908373ffffffffffffffffffffffffffffffffffffffff1602179055505050565b6060600160003373ffffffffffffffffffffffffffffffffffffffff1673ffffffffffffffffffffffffffffffffffffffff1681526020019081526020016000206003018054806020026020016040519081016040528092919081815260200182805480156200089f57602002820191906000526020600020905b8160009054906101000a900473ffffffffffffffffffffffffffffffffffffffff1673ffffffffffffffffffffffffffffffffffffffff168152602001906001019080831162000854575b5050505050905090565b606060038054806020026020016040519081016040528092919081815260200182805480156200092f57602002820191906000526020600020905b8160009054906101000a900473ffffffffffffffffffffffffffffffffffffffff1673ffffffffffffffffffffffffffffffffffffffff1681526020019060010190808311620008e4575b5050505050905090565b60008054906101000a900473ffffffffffffffffffffffffffffffffffffffff1681565b60016020528060005260406000206000915090508060000160009054906101000a900460ff16908060000160019054906101000a900473ffffffffffffffffffffffffffffffffffffffff16908060000160159054906101000a900460ff16908060010154905084565b600060018060008473ffffffffffffffffffffffffffffffffffffffff1673ffffffffffffffffffffffffffffffffffffffff16815260200190815260200160002060000160156101000a81548160ff021916908315150217905550600160008373ffffffffffffffffffffffffffffffffffffffff1673ffffffffffffffffffffffffffffffffffffffff16815260200190815260200160002060000160159054906101000a900460ff169050919050565b6000600160008373ffffffffffffffffffffffffffffffffffffffff1673ffffffffffffffffffffffffffffffffffffffff168152602001908152602001600020600101549050919050565b61147a80620010bd83390190565b600080fd5b6000819050919050565b62000aee8162000ad9565b811462000afa57600080fd5b50565b60008135905062000b0e8162000ae3565b92915050565b60006020828403121562000b2d5762000b2c62000ad4565b5b600062000b3d8482850162000afd565b91505092915050565b600073ffffffffffffffffffffffffffffffffffffffff82169050919050565b6000819050919050565b600062000b9162000b8b62000b858462000b46565b62000b66565b62000b46565b9050919050565b600062000ba58262000b70565b9050919050565b600062000bb98262000b98565b9050919050565b62000bcb8162000bac565b82525050565b600060208201905062000be8600083018462000bc0565b92915050565b600062000bfb8262000b46565b9050919050565b62000c0d8162000bee565b811462000c1957600080fd5b50565b60008135905062000c2d8162000c02565b92915050565b6000806040838503121562000c4d5762000c4c62000ad4565b5b600062000c5d8582860162000afd565b925050602062000c708582860162000c1c565b9150509250929050565b60008060006060848603121562000c965762000c9562000ad4565b5b600062000ca68682870162000afd565b935050602062000cb98682870162000afd565b925050604062000ccc8682870162000afd565b9150509250925092565b600081519050919050565b600082825260208201905092915050565b6000819050602082019050919050565b62000d0d8162000bac565b82525050565b600062000d21838362000d02565b60208301905092915050565b6000602082019050919050565b600062000d478262000cd6565b62000d53818562000ce1565b935062000d608362000cf2565b8060005b8381101562000d9757815162000d7b888262000d13565b975062000d888362000d2d565b92505060018101905062000d64565b5085935050505092915050565b6000602082019050818103600083015262000dc0818462000d3a565b905092915050565b6000806040838503121562000de25762000de162000ad4565b5b600062000df28582860162000c1c565b925050602062000e058582860162000c1c565b9150509250929050565b600081519050919050565b6000819050602082019050919050565b62000e358162000bee565b82525050565b600062000e49838362000e2a565b60208301905092915050565b6000602082019050919050565b600062000e6f8262000e0f565b62000e7b818562000ce1565b935062000e888362000e1a565b8060005b8381101562000ebf57815162000ea3888262000e3b565b975062000eb08362000e55565b92505060018101905062000e8c565b5085935050505092915050565b6000602082019050818103600083015262000ee8818462000e62565b905092915050565b62000efb8162000bee565b82525050565b600060208201905062000f18600083018462000ef0565b92915050565b60006020828403121562000f375762000f3662000ad4565b5b600062000f478482850162000c1c565b91505092915050565b60008115159050919050565b62000f678162000f50565b82525050565b62000f788162000ad9565b82525050565b600060808201905062000f95600083018762000f5c565b62000fa4602083018662000bc0565b62000fb3604083018562000f5c565b62000fc2606083018462000f6d565b95945050505050565b600060208201905062000fe2600083018462000f5c565b92915050565b600060208201905062000fff600083018462000f6d565b92915050565b7f4e487b7100000000000000000000000000000000000000000000000000000000600052601160045260246000fd5b6000620010418262000ad9565b91506200104e8362000ad9565b925082820190508082111562001069576200106862001005565b5b92915050565b600060808201905062001086600083018762000f6d565b62001095602083018662000f6d565b620010a4604083018562000f6d565b620010b3606083018462000ef0565b9594505050505056fe608060405260008060006101000a81548160ff021916908360038111156200002c576200002b62000168565b5b02179055506001600460016101000a81548160ff0219169083151502179055503480156200005957600080fd5b506040516200147a3803806200147a83398181016040528101906200007f91906200023c565b80600060016101000a81548173ffffffffffffffffffffffffffffffffffffffff021916908373ffffffffffffffffffffffffffffffffffffffff16021790555033600460026101000a81548173ffffffffffffffffffffffffffffffffffffffff021916908373ffffffffffffffffffffffffffffffffffffffff16021790555060008060006101000a81548160ff0219169083600381111562000129576200012862000168565b5b02179055508360018190555082600281905550603c826200014b9190620002dd565b4262000158919062000328565b6003819055505050505062000363565b7f4e487b7100000000000000000000000000000000000000000000000000000000600052602160045260246000fd5b600080fd5b6000819050919050565b620001b1816200019c565b8114620001bd57600080fd5b50565b600081519050620001d181620001a6565b92915050565b600073ffffffffffffffffffffffffffffffffffffffff82169050919050565b60006200020482620001d7565b9050919050565b6200021681620001f7565b81146200022257600080fd5b50565b60008151905062000236816200020b565b92915050565b6000806000806080858703121562000259576200025862000197565b5b60006200026987828801620001c0565b94505060206200027c87828801620001c0565b93505060406200028f87828801620001c0565b9250506060620002a28782880162000225565b91505092959194509250565b7f4e487b7100000000000000000000000000000000000000000000000000000000600052601160045260246000fd5b6000620002ea826200019c565b9150620002f7836200019c565b925082820262000307816200019c565b91508282048414831517620003215762000320620002ae565b5b5092915050565b600062000335826200019c565b915062000342836200019c565b92508282019050808211156200035d576200035c620002ae565b5b92915050565b61110780620003736000396000f3fe6080604052600436106100f35760003560e01c80637c3a00fd1161008a578063c19d93fb11610059578063c19d93fb14610293578063d28de3c5146102be578063e8b5e51f146102e9578063fbaa78f3146102f3576100f3565b80637c3a00fd146101fb5780637df1f1b9146102265780639d585f7f14610251578063b2d5ae441461027c576100f3565b80633660c095116100c65780633660c095146101815780633ccfd60b146101af578063402d8883146101c65780634561dd11146101d0576100f3565b806302fb0c5e146100f85780630e29df221461012357806328fd10d71461012d57806329c68dc11461016a575b600080fd5b34801561010457600080fd5b5061010d610330565b60405161011a9190610c69565b60405180910390f35b61012b610343565b005b34801561013957600080fd5b50610154600480360381019061014f9190610ce7565b610345565b6040516101619190610c69565b60405180910390f35b34801561017657600080fd5b5061017f610365565b005b34801561018d57600080fd5b506101966103eb565b6040516101a69493929190610d3c565b60405180910390f35b3480156101bb57600080fd5b506101c461042b565b005b6101ce610521565b005b3480156101dc57600080fd5b506101e56107aa565b6040516101f29190610d81565b60405180910390f35b34801561020757600080fd5b506102106107b0565b60405161021d9190610d81565b60405180910390f35b34801561023257600080fd5b5061023b6107b6565b6040516102489190610dbd565b60405180910390f35b34801561025d57600080fd5b506102666107dc565b6040516102739190610d81565b60405180910390f35b34801561028857600080fd5b506102916107e2565b005b34801561029f57600080fd5b506102a8610a13565b6040516102b59190610e4f565b60405180910390f35b3480156102ca57600080fd5b506102d3610a24565b6040516102e09190610c69565b60405180910390f35b6102f1610a37565b005b3480156102ff57600080fd5b5061031a60048036038101906103159190610ce7565b610c36565b6040516103279190610d81565b60405180910390f35b600460019054906101000a900460ff1681565b565b60056020528060005260406000206000915054906101000a900460ff1681565b600060019054906101000a900473ffffffffffffffffffffffffffffffffffffffff1673ffffffffffffffffffffffffffffffffffffffff163373ffffffffffffffffffffffffffffffffffffffff16146103bf57600080fd5b600460019054906101000a900460ff1615600460016101000a81548160ff021916908315150217905550565b600080600080600060019054906101000a900473ffffffffffffffffffffffffffffffffffffffff16600154600254600354935093509350935090919293565b600060019054906101000a900473ffffffffffffffffffffffffffffffffffffffff1673ffffffffffffffffffffffffffffffffffffffff163373ffffffffffffffffffffffffffffffffffffffff161461048557600080fd5b60016000806101000a81548160ff021916908360038111156104aa576104a9610dd8565b5b021790555047600181905550600060019054906101000a900473ffffffffffffffffffffffffffffffffffffffff1673ffffffffffffffffffffffffffffffffffffffff166108fc479081150290604051600060405180830381858888f1935050505015801561051e573d6000803e3d6000fd5b50565b3373ffffffffffffffffffffffffffffffffffffffff16600060019054906101000a900473ffffffffffffffffffffffffffffffffffffffff1673ffffffffffffffffffffffffffffffffffffffff161461057b57600080fd5b6001600381111561058f5761058e610dd8565b5b60008054906101000a900460ff1660038111156105af576105ae610dd8565b5b146105b957600080fd5b60646002546001546105cb9190610e99565b6105d59190610f0a565b6001546105e29190610f3b565b341015610624576040517f08c379a000000000000000000000000000000000000000000000000000000000815260040161061b90610fcc565b60405180910390fd5b600354421161070457600060024260035461063f9190610fec565b6106499190610e99565b90506000600460029054906101000a900473ffffffffffffffffffffffffffffffffffffffff1690508073ffffffffffffffffffffffffffffffffffffffff16630874125583600060019054906101000a900473ffffffffffffffffffffffffffffffffffffffff166040518363ffffffff1660e01b81526004016106cf92919061107f565b600060405180830381600087803b1580156106e957600080fd5b505af11580156106fd573d6000803e3d6000fd5b5050505050505b600047346107129190610fec565b9050600060019054906101000a900473ffffffffffffffffffffffffffffffffffffffff1673ffffffffffffffffffffffffffffffffffffffff166108fc829081150290604051600060405180830381858888f1935050505015801561077c573d6000803e3d6000fd5b5060036000806101000a81548160ff021916908360038111156107a2576107a1610dd8565b5b021790555050565b60035481565b60025481565b600060019054906101000a900473ffffffffffffffffffffffffffffffffffffffff1681565b60015481565b6003808111156107f5576107f4610dd8565b5b60008054906101000a900460ff16600381111561081557610814610dd8565b5b1461081f57600080fd5b60003390506000600660008373ffffffffffffffffffffffffffffffffffffffff1673ffffffffffffffffffffffffffffffffffffffff168152602001908152602001600020541161087057600080fd5b60006064600254600660008573ffffffffffffffffffffffffffffffffffffffff1673ffffffffffffffffffffffffffffffffffffffff168152602001908152602001600020546108c19190610e99565b6108cb9190610f0a565b9050600081600660008573ffffffffffffffffffffffffffffffffffffffff1673ffffffffffffffffffffffffffffffffffffffff1681526020019081526020016000205461091a9190610f3b565b90506000470361094f5760026000806101000a81548160ff0219169083600381111561094957610948610dd8565b5b02179055505b8273ffffffffffffffffffffffffffffffffffffffff166108fc829081150290604051600060405180830381858888f19350505050158015610995573d6000803e3d6000fd5b50600047036109c95760026000806101000a81548160ff021916908360038111156109c3576109c2610dd8565b5b02179055505b6000600660008573ffffffffffffffffffffffffffffffffffffffff1673ffffffffffffffffffffffffffffffffffffffff16815260200190815260200160002081905550505050565b60008054906101000a900460ff1681565b600460009054906101000a900460ff1681565b670de0b6b3a7640000341015610a4c57600080fd5b600060019054906101000a900473ffffffffffffffffffffffffffffffffffffffff1673ffffffffffffffffffffffffffffffffffffffff163373ffffffffffffffffffffffffffffffffffffffff1603610aa657600080fd5b60001515600560003373ffffffffffffffffffffffffffffffffffffffff1673ffffffffffffffffffffffffffffffffffffffff16815260200190815260200160002060009054906101000a900460ff16151514610b0357600080fd5b6001600560003373ffffffffffffffffffffffffffffffffffffffff1673ffffffffffffffffffffffffffffffffffffffff16815260200190815260200160002060006101000a81548160ff0219169083151502179055506000600460029054906101000a900473ffffffffffffffffffffffffffffffffffffffff1690508073ffffffffffffffffffffffffffffffffffffffff16635e97414433306040518363ffffffff1660e01b8152600401610bbd9291906110a8565b600060405180830381600087803b158015610bd757600080fd5b505af1158015610beb573d6000803e3d6000fd5b5050505034600660003373ffffffffffffffffffffffffffffffffffffffff1673ffffffffffffffffffffffffffffffffffffffff1681526020019081526020016000208190555050565b60066020528060005260406000206000915090505481565b60008115159050919050565b610c6381610c4e565b82525050565b6000602082019050610c7e6000830184610c5a565b92915050565b600080fd5b600073ffffffffffffffffffffffffffffffffffffffff82169050919050565b6000610cb482610c89565b9050919050565b610cc481610ca9565b8114610ccf57600080fd5b50565b600081359050610ce181610cbb565b92915050565b600060208284031215610cfd57610cfc610c84565b5b6000610d0b84828501610cd2565b91505092915050565b610d1d81610ca9565b82525050565b6000819050919050565b610d3681610d23565b82525050565b6000608082019050610d516000830187610d14565b610d5e6020830186610d2d565b610d6b6040830185610d2d565b610d786060830184610d2d565b95945050505050565b6000602082019050610d966000830184610d2d565b92915050565b6000610da782610c89565b9050919050565b610db781610d9c565b82525050565b6000602082019050610dd26000830184610dae565b92915050565b7f4e487b7100000000000000000000000000000000000000000000000000000000600052602160045260246000fd5b60048110610e1857610e17610dd8565b5b50565b6000819050610e2982610e07565b919050565b6000610e3982610e1b565b9050919050565b610e4981610e2e565b82525050565b6000602082019050610e646000830184610e40565b92915050565b7f4e487b7100000000000000000000000000000000000000000000000000000000600052601160045260246000fd5b6000610ea482610d23565b9150610eaf83610d23565b9250828202610ebd81610d23565b91508282048414831517610ed457610ed3610e6a565b5b5092915050565b7f4e487b7100000000000000000000000000000000000000000000000000000000600052601260045260246000fd5b6000610f1582610d23565b9150610f2083610d23565b925082610f3057610f2f610edb565b5b828204905092915050565b6000610f4682610d23565b9150610f5183610d23565b9250828201905080821115610f6957610f68610e6a565b5b92915050565b600082825260208201905092915050565b7f5061796d656e7420616d6f756e7420697320696e636f72726563740000000000600082015250565b6000610fb6601b83610f6f565b9150610fc182610f80565b602082019050919050565b60006020820190508181036000830152610fe581610fa9565b9050919050565b6000610ff782610d23565b915061100283610d23565b925082820390508181111561101a57611019610e6a565b5b92915050565b6000819050919050565b600061104561104061103b84610c89565b611020565b610c89565b9050919050565b60006110578261102a565b9050919050565b60006110698261104c565b9050919050565b6110798161105e565b82525050565b60006040820190506110946000830185610d2d565b6110a16020830184611070565b9392505050565b60006040820190506110bd6000830185610d14565b6110ca6020830184610d14565b939250505056fea264697066735822122088719a727c46e471b2a263b08c03f1cb7e3c722f9e3e608da5cdacfefa27547c64736f6c63430008130033a26469706673582212206bc3b86d5bb19145fb7062c7e299952106f25f6be9697dee746c24cd7eeb738b64736f6c63430008130033",
  "immutableReferences": {},
  "source": "// SPDX-License-Identifier: MIT\r\npragma solidity >0.7.0;\r\nimport './Credit.sol';\r\n\r\n\r\ncontract Main{\r\n\r\n    address public owner;\r\n      // User structure\r\n    struct User {\r\n        // Is the user currently credited.\r\n        bool credited;\r\n\r\n        // The adress of the active credit.\r\n        Credit activeCredit;\r\n\r\n        // Is the user marked as fraudlent.\r\n        bool fraudStatus;\r\n\r\n        uint creditScore;\r\n\r\n        // All user credits.\r\n        Credit[] allCredits;\r\n\r\n        address[] investedCredits;\r\n    }\r\n\r\n    // We store all users in a mapping.\r\n    mapping(address => User) public users;\r\n    address[] array;\r\n    Credit[] public credits;\r\n\r\n    constructor(){\r\n        owner = msg.sender;\r\n        array.push(msg.sender);\r\n    }\r\n\r\n     function applyForCredit(uint requestedAmount, uint interest, uint endDays ) public  returns(Credit _credit) {\r\n        // The user should not have been credited;\r\n        require(users[msg.sender].credited == false);\r\n \r\n         require(users[msg.sender].fraudStatus == false);\r\n\r\n        users[msg.sender].credited = true;\r\n\r\n        Credit credit = new Credit(requestedAmount, interest , endDays ,msg.sender);\r\n\r\n        users[msg.sender].activeCredit = credit;\r\n\r\n        credits.push(credit);\r\n\r\n        // Add the credit to the user's profile.\r\n        users[msg.sender].allCredits.push(credit);\r\n\r\n        return credit;\r\n    }\r\n\r\n    function getUserCredits() public view returns (Credit[] memory) {\r\n        return users[msg.sender].allCredits;\r\n    }\r\n\r\n     function setFraudStatus(address _borrower) external returns (bool) {\r\n        // Update user fraud status.\r\n        users[_borrower].fraudStatus = true;\r\n\r\n        // Log fraud status.\r\n        // LogUserSetFraud(_borrower, users[_borrower].fraudStatus, block.timestamp);\r\n\r\n        return users[_borrower].fraudStatus;\r\n    }\r\n\r\n    function getCredits() public view returns(Credit []memory){\r\n        return credits;\r\n    }\r\n\r\n    function updateCreditScore(uint points ,address borrower) external{\r\n\r\n        users[borrower].creditScore = users[borrower].creditScore + points;\r\n    }\r\n\r\n    function getScore(address borrower)public view returns(uint){\r\n\r\n        return users[borrower].creditScore;\r\n    }\r\n\r\n    function addToInvestedCredits(address lender ,address credit) public{ \r\n\r\n        users[lender].investedCredits.push(credit);\r\n    }\r\n    function getInvestedCredits() public view returns(address []memory){\r\n\r\n        return users[msg.sender].investedCredits;\r\n    }\r\n     \r\n\r\n}\r\n\r\n\r\n",
  "sourcePath": "C:\\Users\\Chaitnya\\OneDrive\\Desktop\\block-chain\\testing\\contracts\\Main.sol",
  "compiler": {
    "name": "solc",
    "version": "0.8.19+commit.7dd6d404.Emscripten.clang"
  },
  "schemaVersion": "3.4.13",
  "updatedAt": "2023-04-03T12:40:17.711Z",
  "networkType": "ethereum",
  "devdoc": {
    "kind": "dev",
    "methods": {},
    "version": 1
  },
  "userdoc": {
    "kind": "user",
    "methods": {},
    "version": 1
  }
}