{
  "contractName": "Main",
  "abi": [
    {
      "inputs": [],
      "stateMutability": "nonpayable",
      "type": "constructor"
    },
    {
      "inputs": [
        {
          "internalType": "uint256",
          "name": "",
          "type": "uint256"
        }
      ],
      "name": "credits",
      "outputs": [
        {
          "internalType": "contract Credit",
          "name": "",
          "type": "address"
        }
      ],
      "stateMutability": "view",
      "type": "function",
      "constant": true
    },
    {
      "inputs": [],
      "name": "owner",
      "outputs": [
        {
          "internalType": "address",
          "name": "",
          "type": "address"
        }
      ],
      "stateMutability": "view",
      "type": "function",
      "constant": true
    },
    {
      "inputs": [
        {
          "internalType": "address",
          "name": "",
          "type": "address"
        }
      ],
      "name": "users",
      "outputs": [
        {
          "internalType": "bool",
          "name": "credited",
          "type": "bool"
        },
        {
          "internalType": "contract Credit",
          "name": "activeCredit",
          "type": "address"
        },
        {
          "internalType": "bool",
          "name": "fraudStatus",
          "type": "bool"
        },
        {
          "internalType": "int256",
          "name": "creditScore",
          "type": "int256"
        }
      ],
      "stateMutability": "view",
      "type": "function",
      "constant": true
    },
    {
      "inputs": [
        {
          "internalType": "uint256",
          "name": "requestedAmount",
          "type": "uint256"
        },
        {
          "internalType": "uint256",
          "name": "interest",
          "type": "uint256"
        },
        {
          "internalType": "uint256",
          "name": "endDays",
          "type": "uint256"
        }
      ],
      "name": "applyForCredit",
      "outputs": [
        {
          "internalType": "contract Credit",
          "name": "_credit",
          "type": "address"
        }
      ],
      "stateMutability": "nonpayable",
      "type": "function"
    },
    {
      "inputs": [],
      "name": "getUserCredits",
      "outputs": [
        {
          "internalType": "contract Credit[]",
          "name": "",
          "type": "address[]"
        }
      ],
      "stateMutability": "view",
      "type": "function",
      "constant": true
    },
    {
      "inputs": [
        {
          "internalType": "address",
          "name": "_borrower",
          "type": "address"
        }
      ],
      "name": "setFraudStatus",
      "outputs": [
        {
          "internalType": "bool",
          "name": "",
          "type": "bool"
        }
      ],
      "stateMutability": "nonpayable",
      "type": "function"
    },
    {
      "inputs": [],
      "name": "getCredits",
      "outputs": [
        {
          "internalType": "contract Credit[]",
          "name": "",
          "type": "address[]"
        }
      ],
      "stateMutability": "view",
      "type": "function",
      "constant": true
    },
    {
      "inputs": [
        {
          "internalType": "int256",
          "name": "points",
          "type": "int256"
        },
        {
          "internalType": "address",
          "name": "borrower",
          "type": "address"
        }
      ],
      "name": "updateCreditScore",
      "outputs": [],
      "stateMutability": "nonpayable",
      "type": "function"
    },
    {
      "inputs": [
        {
          "internalType": "address",
          "name": "borrower",
          "type": "address"
        }
      ],
      "name": "getScore",
      "outputs": [
        {
          "internalType": "int256",
          "name": "",
          "type": "int256"
        }
      ],
      "stateMutability": "view",
      "type": "function",
      "constant": true
    },
    {
      "inputs": [
        {
          "internalType": "address",
          "name": "lender",
          "type": "address"
        },
        {
          "internalType": "address",
          "name": "credit",
          "type": "address"
        }
      ],
      "name": "addToInvestedCredits",
      "outputs": [],
      "stateMutability": "nonpayable",
      "type": "function"
    },
    {
      "inputs": [],
      "name": "getInvestedCredits",
      "outputs": [
        {
          "internalType": "address[]",
          "name": "",
          "type": "address[]"
        }
      ],
      "stateMutability": "view",
      "type": "function",
      "constant": true
    },
    {
      "inputs": [
        {
          "internalType": "address",
          "name": "borrower",
          "type": "address"
        }
      ],
      "name": "changeCreditStatus",
      "outputs": [],
      "stateMutability": "nonpayable",
      "type": "function"
    }
  ],
  "bytecode": "0x608060405234801561001057600080fd5b50336000806101000a81548173ffffffffffffffffffffffffffffffffffffffff021916908373ffffffffffffffffffffffffffffffffffffffff1602179055506002339080600181540180825580915050600190039060005260206000200160009091909190916101000a81548173ffffffffffffffffffffffffffffffffffffffff021916908373ffffffffffffffffffffffffffffffffffffffff160217905550612736806100c36000396000f3fe60806040523480156200001157600080fd5b5060043610620000c45760003560e01c8063823a71af116200007b578063823a71af14620001b95780638da5cb5b14620001db578063a87430ba14620001fd578063bb9e42471462000236578063cdc13e17146200026c578063d47875d0146200028c57620000c4565b8063036a1c2214620000c957806308e4fd7f14620000ff5780632092cb3314620001355780633a5b409d14620001575780635e9741441462000177578063724d777f1462000197575b600080fd5b620000e76004803603810190620000e1919062000b9e565b620002c2565b604051620000f6919062000c5b565b60405180910390f35b6200011d600480360381019062000117919062000c78565b62000302565b6040516200012c919062000c5b565b60405180910390f35b6200013f620005f4565b6040516200014e919062000da2565b60405180910390f35b6200017560048036038101906200016f919062000e0b565b620006c4565b005b6200019560048036038101906200018f919062000e3d565b62000722565b005b620001a1620007c9565b604051620001b0919062000f41565b60405180910390f35b620001c362000899565b604051620001d2919062000da2565b60405180910390f35b620001e562000929565b604051620001f4919062000f76565b60405180910390f35b6200021b600480360381019062000215919062000e0b565b6200094d565b6040516200022d949392919062000fcb565b60405180910390f35b6200025460048036038101906200024e919062000e0b565b620009b7565b60405162000263919062001018565b60405180910390f35b6200028a600480360381019062000284919062001066565b62000a6a565b005b620002aa6004803603810190620002a4919062000e0b565b62000b04565b604051620002b99190620010ad565b60405180910390f35b60038181548110620002d357600080fd5b906000526020600020016000915054906101000a900473ffffffffffffffffffffffffffffffffffffffff1681565b6000801515600160003373ffffffffffffffffffffffffffffffffffffffff1673ffffffffffffffffffffffffffffffffffffffff16815260200190815260200160002060000160009054906101000a900460ff161515146200036457600080fd5b60001515600160003373ffffffffffffffffffffffffffffffffffffffff1673ffffffffffffffffffffffffffffffffffffffff16815260200190815260200160002060000160159054906101000a900460ff16151514620003c557600080fd5b60018060003373ffffffffffffffffffffffffffffffffffffffff1673ffffffffffffffffffffffffffffffffffffffff16815260200190815260200160002060000160006101000a81548160ff021916908315150217905550600084848433604051620004339062000b50565b620004429493929190620010db565b604051809103906000f0801580156200045f573d6000803e3d6000fd5b50905080600160003373ffffffffffffffffffffffffffffffffffffffff1673ffffffffffffffffffffffffffffffffffffffff16815260200190815260200160002060000160016101000a81548173ffffffffffffffffffffffffffffffffffffffff021916908373ffffffffffffffffffffffffffffffffffffffff1602179055506003819080600181540180825580915050600190039060005260206000200160009091909190916101000a81548173ffffffffffffffffffffffffffffffffffffffff021916908373ffffffffffffffffffffffffffffffffffffffff160217905550600160003373ffffffffffffffffffffffffffffffffffffffff1673ffffffffffffffffffffffffffffffffffffffff168152602001908152602001600020600201819080600181540180825580915050600190039060005260206000200160009091909190916101000a81548173ffffffffffffffffffffffffffffffffffffffff021916908373ffffffffffffffffffffffffffffffffffffffff160217905550809150509392505050565b6060600160003373ffffffffffffffffffffffffffffffffffffffff1673ffffffffffffffffffffffffffffffffffffffff168152602001908152602001600020600201805480602002602001604051908101604052809291908181526020018280548015620006ba57602002820191906000526020600020905b8160009054906101000a900473ffffffffffffffffffffffffffffffffffffffff1673ffffffffffffffffffffffffffffffffffffffff16815260200190600101908083116200066f575b5050505050905090565b6000600160008373ffffffffffffffffffffffffffffffffffffffff1673ffffffffffffffffffffffffffffffffffffffff16815260200190815260200160002060000160006101000a81548160ff02191690831515021790555050565b600160008373ffffffffffffffffffffffffffffffffffffffff1673ffffffffffffffffffffffffffffffffffffffff168152602001908152602001600020600301819080600181540180825580915050600190039060005260206000200160009091909190916101000a81548173ffffffffffffffffffffffffffffffffffffffff021916908373ffffffffffffffffffffffffffffffffffffffff1602179055505050565b6060600160003373ffffffffffffffffffffffffffffffffffffffff1673ffffffffffffffffffffffffffffffffffffffff1681526020019081526020016000206003018054806020026020016040519081016040528092919081815260200182805480156200088f57602002820191906000526020600020905b8160009054906101000a900473ffffffffffffffffffffffffffffffffffffffff1673ffffffffffffffffffffffffffffffffffffffff168152602001906001019080831162000844575b5050505050905090565b606060038054806020026020016040519081016040528092919081815260200182805480156200091f57602002820191906000526020600020905b8160009054906101000a900473ffffffffffffffffffffffffffffffffffffffff1673ffffffffffffffffffffffffffffffffffffffff1681526020019060010190808311620008d4575b5050505050905090565b60008054906101000a900473ffffffffffffffffffffffffffffffffffffffff1681565b60016020528060005260406000206000915090508060000160009054906101000a900460ff16908060000160019054906101000a900473ffffffffffffffffffffffffffffffffffffffff16908060000160159054906101000a900460ff16908060010154905084565b600060018060008473ffffffffffffffffffffffffffffffffffffffff1673ffffffffffffffffffffffffffffffffffffffff16815260200190815260200160002060000160156101000a81548160ff021916908315150217905550600160008373ffffffffffffffffffffffffffffffffffffffff1673ffffffffffffffffffffffffffffffffffffffff16815260200190815260200160002060000160159054906101000a900460ff169050919050565b81600160008373ffffffffffffffffffffffffffffffffffffffff1673ffffffffffffffffffffffffffffffffffffffff1681526020019081526020016000206001015462000aba919062001157565b600160008373ffffffffffffffffffffffffffffffffffffffff1673ffffffffffffffffffffffffffffffffffffffff168152602001908152602001600020600101819055505050565b6000600160008373ffffffffffffffffffffffffffffffffffffffff1673ffffffffffffffffffffffffffffffffffffffff168152602001908152602001600020600101549050919050565b61155e80620011a383390190565b600080fd5b6000819050919050565b62000b788162000b63565b811462000b8457600080fd5b50565b60008135905062000b988162000b6d565b92915050565b60006020828403121562000bb75762000bb662000b5e565b5b600062000bc78482850162000b87565b91505092915050565b600073ffffffffffffffffffffffffffffffffffffffff82169050919050565b6000819050919050565b600062000c1b62000c1562000c0f8462000bd0565b62000bf0565b62000bd0565b9050919050565b600062000c2f8262000bfa565b9050919050565b600062000c438262000c22565b9050919050565b62000c558162000c36565b82525050565b600060208201905062000c72600083018462000c4a565b92915050565b60008060006060848603121562000c945762000c9362000b5e565b5b600062000ca48682870162000b87565b935050602062000cb78682870162000b87565b925050604062000cca8682870162000b87565b9150509250925092565b600081519050919050565b600082825260208201905092915050565b6000819050602082019050919050565b62000d0b8162000c36565b82525050565b600062000d1f838362000d00565b60208301905092915050565b6000602082019050919050565b600062000d458262000cd4565b62000d51818562000cdf565b935062000d5e8362000cf0565b8060005b8381101562000d9557815162000d79888262000d11565b975062000d868362000d2b565b92505060018101905062000d62565b5085935050505092915050565b6000602082019050818103600083015262000dbe818462000d38565b905092915050565b600062000dd38262000bd0565b9050919050565b62000de58162000dc6565b811462000df157600080fd5b50565b60008135905062000e058162000dda565b92915050565b60006020828403121562000e245762000e2362000b5e565b5b600062000e348482850162000df4565b91505092915050565b6000806040838503121562000e575762000e5662000b5e565b5b600062000e678582860162000df4565b925050602062000e7a8582860162000df4565b9150509250929050565b600081519050919050565b6000819050602082019050919050565b62000eaa8162000dc6565b82525050565b600062000ebe838362000e9f565b60208301905092915050565b6000602082019050919050565b600062000ee48262000e84565b62000ef0818562000cdf565b935062000efd8362000e8f565b8060005b8381101562000f3457815162000f18888262000eb0565b975062000f258362000eca565b92505060018101905062000f01565b5085935050505092915050565b6000602082019050818103600083015262000f5d818462000ed7565b905092915050565b62000f708162000dc6565b82525050565b600060208201905062000f8d600083018462000f65565b92915050565b60008115159050919050565b62000faa8162000f93565b82525050565b6000819050919050565b62000fc58162000fb0565b82525050565b600060808201905062000fe2600083018762000f9f565b62000ff1602083018662000c4a565b62001000604083018562000f9f565b6200100f606083018462000fba565b95945050505050565b60006020820190506200102f600083018462000f9f565b92915050565b620010408162000fb0565b81146200104c57600080fd5b50565b600081359050620010608162001035565b92915050565b6000806040838503121562001080576200107f62000b5e565b5b600062001090858286016200104f565b9250506020620010a38582860162000df4565b9150509250929050565b6000602082019050620010c4600083018462000fba565b92915050565b620010d58162000b63565b82525050565b6000608082019050620010f26000830187620010ca565b620011016020830186620010ca565b620011106040830185620010ca565b6200111f606083018462000f65565b95945050505050565b7f4e487b7100000000000000000000000000000000000000000000000000000000600052601160045260246000fd5b6000620011648262000fb0565b9150620011718362000fb0565b9250828201905082811215600083121683821260008412151617156200119c576200119b62001128565b5b9291505056fe608060405260008060006101000a81548160ff021916908360038111156200002c576200002b62000168565b5b02179055506001600460016101000a81548160ff0219169083151502179055503480156200005957600080fd5b506040516200155e3803806200155e83398181016040528101906200007f91906200023c565b80600060016101000a81548173ffffffffffffffffffffffffffffffffffffffff021916908373ffffffffffffffffffffffffffffffffffffffff16021790555033600460026101000a81548173ffffffffffffffffffffffffffffffffffffffff021916908373ffffffffffffffffffffffffffffffffffffffff16021790555060008060006101000a81548160ff0219169083600381111562000129576200012862000168565b5b02179055508360018190555082600281905550603c826200014b9190620002dd565b4262000158919062000328565b6003819055505050505062000363565b7f4e487b7100000000000000000000000000000000000000000000000000000000600052602160045260246000fd5b600080fd5b6000819050919050565b620001b1816200019c565b8114620001bd57600080fd5b50565b600081519050620001d181620001a6565b92915050565b600073ffffffffffffffffffffffffffffffffffffffff82169050919050565b60006200020482620001d7565b9050919050565b6200021681620001f7565b81146200022257600080fd5b50565b60008151905062000236816200020b565b92915050565b6000806000806080858703121562000259576200025862000197565b5b60006200026987828801620001c0565b94505060206200027c87828801620001c0565b93505060406200028f87828801620001c0565b9250506060620002a28782880162000225565b91505092959194509250565b7f4e487b7100000000000000000000000000000000000000000000000000000000600052601160045260246000fd5b6000620002ea826200019c565b9150620002f7836200019c565b925082820262000307816200019c565b91508282048414831517620003215762000320620002ae565b5b5092915050565b600062000335826200019c565b915062000342836200019c565b92508282019050808211156200035d576200035c620002ae565b5b92915050565b6111eb80620003736000396000f3fe6080604052600436106100f35760003560e01c80637c3a00fd1161008a578063c19d93fb11610059578063c19d93fb14610293578063d28de3c5146102be578063e8b5e51f146102e9578063fbaa78f3146102f3576100f3565b80637c3a00fd146101fb5780637df1f1b9146102265780639d585f7f14610251578063b2d5ae441461027c576100f3565b80633660c095116100c65780633660c095146101815780633ccfd60b146101af578063402d8883146101c65780634561dd11146101d0576100f3565b806302fb0c5e146100f85780630e29df221461012357806328fd10d71461012d57806329c68dc11461016a575b600080fd5b34801561010457600080fd5b5061010d610330565b60405161011a9190610ca1565b60405180910390f35b61012b610343565b005b34801561013957600080fd5b50610154600480360381019061014f9190610d1f565b610345565b6040516101619190610ca1565b60405180910390f35b34801561017657600080fd5b5061017f610365565b005b34801561018d57600080fd5b506101966103eb565b6040516101a69493929190610d74565b60405180910390f35b3480156101bb57600080fd5b506101c461042b565b005b6101ce610521565b005b3480156101dc57600080fd5b506101e5610815565b6040516101f29190610db9565b60405180910390f35b34801561020757600080fd5b5061021061081b565b60405161021d9190610db9565b60405180910390f35b34801561023257600080fd5b5061023b610821565b6040516102489190610df5565b60405180910390f35b34801561025d57600080fd5b50610266610847565b6040516102739190610db9565b60405180910390f35b34801561028857600080fd5b5061029161084d565b005b34801561029f57600080fd5b506102a8610a4b565b6040516102b59190610e87565b60405180910390f35b3480156102ca57600080fd5b506102d3610a5c565b6040516102e09190610ca1565b60405180910390f35b6102f1610a6f565b005b3480156102ff57600080fd5b5061031a60048036038101906103159190610d1f565b610c6e565b6040516103279190610db9565b60405180910390f35b600460019054906101000a900460ff1681565b565b60056020528060005260406000206000915054906101000a900460ff1681565b600060019054906101000a900473ffffffffffffffffffffffffffffffffffffffff1673ffffffffffffffffffffffffffffffffffffffff163373ffffffffffffffffffffffffffffffffffffffff16146103bf57600080fd5b600460019054906101000a900460ff1615600460016101000a81548160ff021916908315150217905550565b600080600080600060019054906101000a900473ffffffffffffffffffffffffffffffffffffffff16600154600254600354935093509350935090919293565b600060019054906101000a900473ffffffffffffffffffffffffffffffffffffffff1673ffffffffffffffffffffffffffffffffffffffff163373ffffffffffffffffffffffffffffffffffffffff161461048557600080fd5b60016000806101000a81548160ff021916908360038111156104aa576104a9610e10565b5b021790555047600181905550600060019054906101000a900473ffffffffffffffffffffffffffffffffffffffff1673ffffffffffffffffffffffffffffffffffffffff166108fc479081150290604051600060405180830381858888f1935050505015801561051e573d6000803e3d6000fd5b50565b3373ffffffffffffffffffffffffffffffffffffffff16600060019054906101000a900473ffffffffffffffffffffffffffffffffffffffff1673ffffffffffffffffffffffffffffffffffffffff161461057b57600080fd5b6001600381111561058f5761058e610e10565b5b60008054906101000a900460ff1660038111156105af576105ae610e10565b5b146105b957600080fd5b60646002546001546105cb9190610ed1565b6105d59190610f42565b6001546105e29190610f73565b341015610624576040517f08c379a000000000000000000000000000000000000000000000000000000000815260040161061b90611004565b60405180910390fd5b6000600460029054906101000a900473ffffffffffffffffffffffffffffffffffffffff16905060035442116107035760006002426003546106669190611024565b6106709190611062565b90508173ffffffffffffffffffffffffffffffffffffffff1663cdc13e1782600060019054906101000a900473ffffffffffffffffffffffffffffffffffffffff166040518363ffffffff1660e01b81526004016106cf929190611148565b600060405180830381600087803b1580156106e957600080fd5b505af11580156106fd573d6000803e3d6000fd5b50505050505b600047346107119190611024565b9050600060019054906101000a900473ffffffffffffffffffffffffffffffffffffffff1673ffffffffffffffffffffffffffffffffffffffff166108fc829081150290604051600060405180830381858888f1935050505015801561077b573d6000803e3d6000fd5b5060036000806101000a81548160ff021916908360038111156107a1576107a0610e10565b5b02179055508173ffffffffffffffffffffffffffffffffffffffff16633a5b409d336040518263ffffffff1660e01b81526004016107df9190611171565b600060405180830381600087803b1580156107f957600080fd5b505af115801561080d573d6000803e3d6000fd5b505050505050565b60035481565b60025481565b600060019054906101000a900473ffffffffffffffffffffffffffffffffffffffff1681565b60015481565b6003808111156108605761085f610e10565b5b60008054906101000a900460ff1660038111156108805761087f610e10565b5b1461088a57600080fd5b60003390506000600660008373ffffffffffffffffffffffffffffffffffffffff1673ffffffffffffffffffffffffffffffffffffffff16815260200190815260200160002054116108db57600080fd5b60006064600254600660008573ffffffffffffffffffffffffffffffffffffffff1673ffffffffffffffffffffffffffffffffffffffff1681526020019081526020016000205461092c9190610ed1565b6109369190610f42565b9050600081600660008573ffffffffffffffffffffffffffffffffffffffff1673ffffffffffffffffffffffffffffffffffffffff168152602001908152602001600020546109859190610f73565b9050600047036109ba5760026000806101000a81548160ff021916908360038111156109b4576109b3610e10565b5b02179055505b8273ffffffffffffffffffffffffffffffffffffffff166108fc829081150290604051600060405180830381858888f19350505050158015610a00573d6000803e3d6000fd5b506000600660008573ffffffffffffffffffffffffffffffffffffffff1673ffffffffffffffffffffffffffffffffffffffff16815260200190815260200160002081905550505050565b60008054906101000a900460ff1681565b600460009054906101000a900460ff1681565b670de0b6b3a7640000341015610a8457600080fd5b600060019054906101000a900473ffffffffffffffffffffffffffffffffffffffff1673ffffffffffffffffffffffffffffffffffffffff163373ffffffffffffffffffffffffffffffffffffffff1603610ade57600080fd5b60001515600560003373ffffffffffffffffffffffffffffffffffffffff1673ffffffffffffffffffffffffffffffffffffffff16815260200190815260200160002060009054906101000a900460ff16151514610b3b57600080fd5b6001600560003373ffffffffffffffffffffffffffffffffffffffff1673ffffffffffffffffffffffffffffffffffffffff16815260200190815260200160002060006101000a81548160ff0219169083151502179055506000600460029054906101000a900473ffffffffffffffffffffffffffffffffffffffff1690508073ffffffffffffffffffffffffffffffffffffffff16635e97414433306040518363ffffffff1660e01b8152600401610bf592919061118c565b600060405180830381600087803b158015610c0f57600080fd5b505af1158015610c23573d6000803e3d6000fd5b5050505034600660003373ffffffffffffffffffffffffffffffffffffffff1673ffffffffffffffffffffffffffffffffffffffff1681526020019081526020016000208190555050565b60066020528060005260406000206000915090505481565b60008115159050919050565b610c9b81610c86565b82525050565b6000602082019050610cb66000830184610c92565b92915050565b600080fd5b600073ffffffffffffffffffffffffffffffffffffffff82169050919050565b6000610cec82610cc1565b9050919050565b610cfc81610ce1565b8114610d0757600080fd5b50565b600081359050610d1981610cf3565b92915050565b600060208284031215610d3557610d34610cbc565b5b6000610d4384828501610d0a565b91505092915050565b610d5581610ce1565b82525050565b6000819050919050565b610d6e81610d5b565b82525050565b6000608082019050610d896000830187610d4c565b610d966020830186610d65565b610da36040830185610d65565b610db06060830184610d65565b95945050505050565b6000602082019050610dce6000830184610d65565b92915050565b6000610ddf82610cc1565b9050919050565b610def81610dd4565b82525050565b6000602082019050610e0a6000830184610de6565b92915050565b7f4e487b7100000000000000000000000000000000000000000000000000000000600052602160045260246000fd5b60048110610e5057610e4f610e10565b5b50565b6000819050610e6182610e3f565b919050565b6000610e7182610e53565b9050919050565b610e8181610e66565b82525050565b6000602082019050610e9c6000830184610e78565b92915050565b7f4e487b7100000000000000000000000000000000000000000000000000000000600052601160045260246000fd5b6000610edc82610d5b565b9150610ee783610d5b565b9250828202610ef581610d5b565b91508282048414831517610f0c57610f0b610ea2565b5b5092915050565b7f4e487b7100000000000000000000000000000000000000000000000000000000600052601260045260246000fd5b6000610f4d82610d5b565b9150610f5883610d5b565b925082610f6857610f67610f13565b5b828204905092915050565b6000610f7e82610d5b565b9150610f8983610d5b565b9250828201905080821115610fa157610fa0610ea2565b5b92915050565b600082825260208201905092915050565b7f5061796d656e7420616d6f756e7420697320696e636f72726563740000000000600082015250565b6000610fee601b83610fa7565b9150610ff982610fb8565b602082019050919050565b6000602082019050818103600083015261101d81610fe1565b9050919050565b600061102f82610d5b565b915061103a83610d5b565b925082820390508181111561105257611051610ea2565b5b92915050565b6000819050919050565b600061106d82611058565b915061107883611058565b925082820261108681611058565b91507f800000000000000000000000000000000000000000000000000000000000000084146000841216156110be576110bd610ea2565b5b82820584148315176110d3576110d2610ea2565b5b5092915050565b6110e381611058565b82525050565b6000819050919050565b600061110e61110961110484610cc1565b6110e9565b610cc1565b9050919050565b6000611120826110f3565b9050919050565b600061113282611115565b9050919050565b61114281611127565b82525050565b600060408201905061115d60008301856110da565b61116a6020830184611139565b9392505050565b60006020820190506111866000830184610d4c565b92915050565b60006040820190506111a16000830185610d4c565b6111ae6020830184610d4c565b939250505056fea264697066735822122095efd1a690d88d4b85e625b12e15eff7c402565cd139fef7511c2de462e6d0c364736f6c63430008130033a2646970667358221220e1d69f86ea061105d872d100a013b08c22704293e530099ceae953b98a81a85864736f6c63430008130033",
  "immutableReferences": {},
  "source": "// SPDX-License-Identifier: MIT\r\npragma solidity >0.7.0;\r\nimport './Credit.sol';\r\n\r\n\r\ncontract Main{\r\n\r\n    address public owner;\r\n      // User structure\r\n    struct User {\r\n        // Is the user currently credited.\r\n        bool credited;\r\n\r\n        // The adress of the active credit.\r\n        Credit activeCredit;\r\n\r\n        // Is the user marked as fraudlent.\r\n        bool fraudStatus;\r\n\r\n        int creditScore;\r\n\r\n        // All user credits.\r\n        Credit[] allCredits;\r\n\r\n        address[] investedCredits;\r\n    }\r\n\r\n    // We store all users in a mapping.\r\n    mapping(address => User) public users;\r\n    address[] array;\r\n    Credit[] public credits;\r\n\r\n    constructor(){\r\n        owner = msg.sender;\r\n        array.push(msg.sender);\r\n    }\r\n\r\n     function applyForCredit(uint requestedAmount, uint interest, uint endDays ) public  returns(Credit _credit) {\r\n        // The user should not have been credited;\r\n        require(users[msg.sender].credited == false);\r\n \r\n         require(users[msg.sender].fraudStatus == false);\r\n\r\n        users[msg.sender].credited = true;\r\n\r\n        Credit credit = new Credit(requestedAmount, interest , endDays ,msg.sender);\r\n\r\n        users[msg.sender].activeCredit = credit;\r\n\r\n        credits.push(credit);\r\n\r\n        // Add the credit to the user's profile.\r\n        users[msg.sender].allCredits.push(credit);\r\n\r\n        return credit;\r\n    }\r\n\r\n    function getUserCredits() public view returns (Credit[] memory) {\r\n        return users[msg.sender].allCredits;\r\n    }\r\n\r\n     function setFraudStatus(address _borrower) external returns (bool) {\r\n        // Update user fraud status.\r\n        users[_borrower].fraudStatus = true;\r\n\r\n        // Log fraud status.\r\n        // LogUserSetFraud(_borrower, users[_borrower].fraudStatus, block.timestamp);\r\n\r\n        return users[_borrower].fraudStatus;\r\n    }\r\n\r\n    function getCredits() public view returns(Credit []memory){\r\n        return credits;\r\n    }\r\n\r\n    function updateCreditScore(int points ,address borrower) external{\r\n\r\n        users[borrower].creditScore = users[borrower].creditScore + points;\r\n    }\r\n\r\n    function getScore(address borrower)public view returns(int){\r\n\r\n        return users[borrower].creditScore;\r\n    }\r\n\r\n    function addToInvestedCredits(address lender ,address credit) public{ \r\n\r\n        users[lender].investedCredits.push(credit);\r\n    }\r\n\r\n    function getInvestedCredits() public view returns(address []memory){\r\n\r\n        return users[msg.sender].investedCredits;\r\n    }\r\n\r\n    //changing credit status of borrower after repayment of before credit\r\n    function changeCreditStatus(address borrower) public{\r\n\r\n        users[borrower].credited = false;\r\n    }\r\n     \r\n\r\n}\r\n\r\n\r\n",
  "sourcePath": "C:\\Users\\Chaitnya\\OneDrive\\Desktop\\block-chain\\testing\\contracts\\Main.sol",
  "compiler": {
    "name": "solc",
    "version": "0.8.19+commit.7dd6d404.Emscripten.clang"
  },
  "schemaVersion": "3.4.13",
  "updatedAt": "2023-04-11T09:30:47.610Z",
  "networkType": "ethereum",
  "devdoc": {
    "kind": "dev",
    "methods": {},
    "version": 1
  },
  "userdoc": {
    "kind": "user",
    "methods": {},
    "version": 1
  }
}