{
  "contractName": "Main",
  "abi": [
    {
      "inputs": [],
      "stateMutability": "nonpayable",
      "type": "constructor"
    },
    {
      "inputs": [
        {
          "internalType": "uint256",
          "name": "",
          "type": "uint256"
        }
      ],
      "name": "credits",
      "outputs": [
        {
          "internalType": "contract Credit",
          "name": "",
          "type": "address"
        }
      ],
      "stateMutability": "view",
      "type": "function",
      "constant": true
    },
    {
      "inputs": [],
      "name": "owner",
      "outputs": [
        {
          "internalType": "address",
          "name": "",
          "type": "address"
        }
      ],
      "stateMutability": "view",
      "type": "function",
      "constant": true
    },
    {
      "inputs": [
        {
          "internalType": "address",
          "name": "",
          "type": "address"
        }
      ],
      "name": "users",
      "outputs": [
        {
          "internalType": "bool",
          "name": "credited",
          "type": "bool"
        },
        {
          "internalType": "contract Credit",
          "name": "activeCredit",
          "type": "address"
        },
        {
          "internalType": "bool",
          "name": "fraudStatus",
          "type": "bool"
        }
      ],
      "stateMutability": "view",
      "type": "function",
      "constant": true
    },
    {
      "inputs": [
        {
          "internalType": "uint256",
          "name": "requestedAmount",
          "type": "uint256"
        },
        {
          "internalType": "uint256",
          "name": "repaymentsCount",
          "type": "uint256"
        },
        {
          "internalType": "uint256",
          "name": "interest",
          "type": "uint256"
        }
      ],
      "name": "applyForCredit",
      "outputs": [
        {
          "internalType": "contract Credit",
          "name": "_credit",
          "type": "address"
        }
      ],
      "stateMutability": "nonpayable",
      "type": "function"
    },
    {
      "inputs": [],
      "name": "getUserCredits",
      "outputs": [
        {
          "internalType": "contract Credit[]",
          "name": "",
          "type": "address[]"
        }
      ],
      "stateMutability": "view",
      "type": "function",
      "constant": true
    },
    {
      "inputs": [
        {
          "internalType": "address",
          "name": "_borrower",
          "type": "address"
        }
      ],
      "name": "setFraudStatus",
      "outputs": [
        {
          "internalType": "bool",
          "name": "",
          "type": "bool"
        }
      ],
      "stateMutability": "nonpayable",
      "type": "function"
    },
    {
      "inputs": [],
      "name": "getCredits",
      "outputs": [
        {
          "internalType": "contract Credit[]",
          "name": "",
          "type": "address[]"
        }
      ],
      "stateMutability": "view",
      "type": "function",
      "constant": true
    }
  ],
  "bytecode": "0x608060405234801561001057600080fd5b50336000806101000a81548173ffffffffffffffffffffffffffffffffffffffff021916908373ffffffffffffffffffffffffffffffffffffffff1602179055506002339080600181540180825580915050600190039060005260206000200160009091909190916101000a81548173ffffffffffffffffffffffffffffffffffffffff021916908373ffffffffffffffffffffffffffffffffffffffff160217905550611ea1806100c36000396000f3fe60806040523480156200001157600080fd5b5060043610620000885760003560e01c8063823a71af1162000063578063823a71af146200011b5780638da5cb5b146200013d578063a87430ba146200015f578063bb9e424714620001975762000088565b8063036a1c22146200008d57806308e4fd7f14620000c35780632092cb3314620000f9575b600080fd5b620000ab6004803603810190620000a59190620007e8565b620001cd565b604051620000ba9190620008a5565b60405180910390f35b620000e16004803603810190620000db9190620008c2565b6200020d565b604051620000f09190620008a5565b60405180910390f35b62000103620004ff565b604051620001129190620009ec565b60405180910390f35b62000125620005cf565b604051620001349190620009ec565b60405180910390f35b620001476200065f565b60405162000156919062000a35565b60405180910390f35b6200017d600480360381019062000177919062000a83565b62000683565b6040516200018e9392919062000ad2565b60405180910390f35b620001b56004803603810190620001af919062000a83565b620006e7565b604051620001c4919062000b0f565b60405180910390f35b60038181548110620001de57600080fd5b906000526020600020016000915054906101000a900473ffffffffffffffffffffffffffffffffffffffff1681565b6000801515600160003373ffffffffffffffffffffffffffffffffffffffff1673ffffffffffffffffffffffffffffffffffffffff16815260200190815260200160002060000160009054906101000a900460ff161515146200026f57600080fd5b60001515600160003373ffffffffffffffffffffffffffffffffffffffff1673ffffffffffffffffffffffffffffffffffffffff16815260200190815260200160002060000160159054906101000a900460ff16151514620002d057600080fd5b60018060003373ffffffffffffffffffffffffffffffffffffffff1673ffffffffffffffffffffffffffffffffffffffff16815260200190815260200160002060000160006101000a81548160ff0219169083151502179055506000848385336040516200033e906200079a565b6200034d949392919062000b3d565b604051809103906000f0801580156200036a573d6000803e3d6000fd5b50905080600160003373ffffffffffffffffffffffffffffffffffffffff1673ffffffffffffffffffffffffffffffffffffffff16815260200190815260200160002060000160016101000a81548173ffffffffffffffffffffffffffffffffffffffff021916908373ffffffffffffffffffffffffffffffffffffffff1602179055506003819080600181540180825580915050600190039060005260206000200160009091909190916101000a81548173ffffffffffffffffffffffffffffffffffffffff021916908373ffffffffffffffffffffffffffffffffffffffff160217905550600160003373ffffffffffffffffffffffffffffffffffffffff1673ffffffffffffffffffffffffffffffffffffffff168152602001908152602001600020600101819080600181540180825580915050600190039060005260206000200160009091909190916101000a81548173ffffffffffffffffffffffffffffffffffffffff021916908373ffffffffffffffffffffffffffffffffffffffff160217905550809150509392505050565b6060600160003373ffffffffffffffffffffffffffffffffffffffff1673ffffffffffffffffffffffffffffffffffffffff168152602001908152602001600020600101805480602002602001604051908101604052809291908181526020018280548015620005c557602002820191906000526020600020905b8160009054906101000a900473ffffffffffffffffffffffffffffffffffffffff1673ffffffffffffffffffffffffffffffffffffffff16815260200190600101908083116200057a575b5050505050905090565b606060038054806020026020016040519081016040528092919081815260200182805480156200065557602002820191906000526020600020905b8160009054906101000a900473ffffffffffffffffffffffffffffffffffffffff1673ffffffffffffffffffffffffffffffffffffffff16815260200190600101908083116200060a575b5050505050905090565b60008054906101000a900473ffffffffffffffffffffffffffffffffffffffff1681565b60016020528060005260406000206000915090508060000160009054906101000a900460ff16908060000160019054906101000a900473ffffffffffffffffffffffffffffffffffffffff16908060000160159054906101000a900460ff16905083565b600060018060008473ffffffffffffffffffffffffffffffffffffffff1673ffffffffffffffffffffffffffffffffffffffff16815260200190815260200160002060000160156101000a81548160ff021916908315150217905550600160008373ffffffffffffffffffffffffffffffffffffffff1673ffffffffffffffffffffffffffffffffffffffff16815260200190815260200160002060000160159054906101000a900460ff169050919050565b6112e18062000b8b83390190565b600080fd5b6000819050919050565b620007c281620007ad565b8114620007ce57600080fd5b50565b600081359050620007e281620007b7565b92915050565b600060208284031215620008015762000800620007a8565b5b60006200081184828501620007d1565b91505092915050565b600073ffffffffffffffffffffffffffffffffffffffff82169050919050565b6000819050919050565b6000620008656200085f62000859846200081a565b6200083a565b6200081a565b9050919050565b6000620008798262000844565b9050919050565b60006200088d826200086c565b9050919050565b6200089f8162000880565b82525050565b6000602082019050620008bc600083018462000894565b92915050565b600080600060608486031215620008de57620008dd620007a8565b5b6000620008ee86828701620007d1565b93505060206200090186828701620007d1565b92505060406200091486828701620007d1565b9150509250925092565b600081519050919050565b600082825260208201905092915050565b6000819050602082019050919050565b620009558162000880565b82525050565b60006200096983836200094a565b60208301905092915050565b6000602082019050919050565b60006200098f826200091e565b6200099b818562000929565b9350620009a8836200093a565b8060005b83811015620009df578151620009c388826200095b565b9750620009d08362000975565b925050600181019050620009ac565b5085935050505092915050565b6000602082019050818103600083015262000a08818462000982565b905092915050565b600062000a1d826200081a565b9050919050565b62000a2f8162000a10565b82525050565b600060208201905062000a4c600083018462000a24565b92915050565b62000a5d8162000a10565b811462000a6957600080fd5b50565b60008135905062000a7d8162000a52565b92915050565b60006020828403121562000a9c5762000a9b620007a8565b5b600062000aac8482850162000a6c565b91505092915050565b60008115159050919050565b62000acc8162000ab5565b82525050565b600060608201905062000ae9600083018662000ac1565b62000af8602083018562000894565b62000b07604083018462000ac1565b949350505050565b600060208201905062000b26600083018462000ac1565b92915050565b62000b3781620007ad565b82525050565b600060808201905062000b54600083018762000b2c565b62000b63602083018662000b2c565b62000b72604083018562000b2c565b62000b81606083018462000a24565b9594505050505056fe608060405260008060006101000a81548160ff021916908360038111156200002c576200002b62000129565b5b02179055506000600460016101000a81548160ff0219169083151502179055503480156200005957600080fd5b50604051620012e1380380620012e183398181016040528101906200007f9190620001fd565b80600060016101000a81548173ffffffffffffffffffffffffffffffffffffffff021916908373ffffffffffffffffffffffffffffffffffffffff16021790555060008060006101000a81548160ff02191690836003811115620000e857620000e762000129565b5b0217905550836001819055508260028190555062015180826200010c91906200029e565b42620001199190620002e9565b6003819055505050505062000324565b7f4e487b7100000000000000000000000000000000000000000000000000000000600052602160045260246000fd5b600080fd5b6000819050919050565b62000172816200015d565b81146200017e57600080fd5b50565b600081519050620001928162000167565b92915050565b600073ffffffffffffffffffffffffffffffffffffffff82169050919050565b6000620001c58262000198565b9050919050565b620001d781620001b8565b8114620001e357600080fd5b50565b600081519050620001f781620001cc565b92915050565b600080600080608085870312156200021a576200021962000158565b5b60006200022a8782880162000181565b94505060206200023d8782880162000181565b9350506040620002508782880162000181565b92505060606200026387828801620001e6565b91505092959194509250565b7f4e487b7100000000000000000000000000000000000000000000000000000000600052601160045260246000fd5b6000620002ab826200015d565b9150620002b8836200015d565b9250828202620002c8816200015d565b91508282048414831517620002e257620002e16200026f565b5b5092915050565b6000620002f6826200015d565b915062000303836200015d565b92508282019050808211156200031e576200031d6200026f565b5b92915050565b610fad80620003346000396000f3fe6080604052600436106100f35760003560e01c80637c3a00fd1161008a578063c19d93fb11610059578063c19d93fb14610294578063d28de3c5146102bf578063e8b5e51f146102ea578063fbaa78f3146102f4576100f3565b80637c3a00fd146101fc5780637df1f1b9146102275780639d585f7f14610252578063b2d5ae441461027d576100f3565b80633660c095116100c65780633660c095146101815780633ccfd60b146101b0578063402d8883146101c75780634561dd11146101d1576100f3565b806302fb0c5e146100f85780630e29df221461012357806328fd10d71461012d57806329c68dc11461016a575b600080fd5b34801561010457600080fd5b5061010d610331565b60405161011a9190610b46565b60405180910390f35b61012b610344565b005b34801561013957600080fd5b50610154600480360381019061014f9190610bc4565b610346565b6040516101619190610b46565b60405180910390f35b34801561017657600080fd5b5061017f610366565b005b34801561018d57600080fd5b506101966103ec565b6040516101a7959493929190610c90565b60405180910390f35b3480156101bc57600080fd5b506101c561042e565b005b6101cf610524565b005b3480156101dd57600080fd5b506101e6610712565b6040516101f39190610ce3565b60405180910390f35b34801561020857600080fd5b50610211610718565b60405161021e9190610ce3565b60405180910390f35b34801561023357600080fd5b5061023c61071e565b6040516102499190610d1f565b60405180910390f35b34801561025e57600080fd5b50610267610744565b6040516102749190610ce3565b60405180910390f35b34801561028957600080fd5b5061029261074a565b005b3480156102a057600080fd5b506102a961099a565b6040516102b69190610d3a565b60405180910390f35b3480156102cb57600080fd5b506102d46109ab565b6040516102e19190610b46565b60405180910390f35b6102f26109be565b005b34801561030057600080fd5b5061031b60048036038101906103169190610bc4565b610b13565b6040516103289190610ce3565b60405180910390f35b600460019054906101000a900460ff1681565b565b60056020528060005260406000206000915054906101000a900460ff1681565b600060019054906101000a900473ffffffffffffffffffffffffffffffffffffffff1673ffffffffffffffffffffffffffffffffffffffff163373ffffffffffffffffffffffffffffffffffffffff16146103c057600080fd5b600460019054906101000a900460ff1615600460016101000a81548160ff021916908315150217905550565b60008060008060008060019054906101000a900473ffffffffffffffffffffffffffffffffffffffff1660015460025460035494509450945094509091929394565b600060019054906101000a900473ffffffffffffffffffffffffffffffffffffffff1673ffffffffffffffffffffffffffffffffffffffff163373ffffffffffffffffffffffffffffffffffffffff161461048857600080fd5b4760018190555060016000806101000a81548160ff021916908360038111156104b4576104b3610c19565b5b0217905550600060019054906101000a900473ffffffffffffffffffffffffffffffffffffffff1673ffffffffffffffffffffffffffffffffffffffff166108fc479081150290604051600060405180830381858888f19350505050158015610521573d6000803e3d6000fd5b50565b3373ffffffffffffffffffffffffffffffffffffffff16600060019054906101000a900473ffffffffffffffffffffffffffffffffffffffff1673ffffffffffffffffffffffffffffffffffffffff161461057e57600080fd5b6001600381111561059257610591610c19565b5b60008054906101000a900460ff1660038111156105b2576105b1610c19565b5b146105bc57600080fd5b60646002546001546105ce9190610d84565b6105d89190610df5565b6001546105e59190610e26565b341015610627576040517f08c379a000000000000000000000000000000000000000000000000000000000815260040161061e90610eb7565b60405180910390fd5b60035442111561066c576040517f08c379a000000000000000000000000000000000000000000000000000000000815260040161066390610f23565b60405180910390fd5b6000473461067a9190610f43565b9050600060019054906101000a900473ffffffffffffffffffffffffffffffffffffffff1673ffffffffffffffffffffffffffffffffffffffff166108fc829081150290604051600060405180830381858888f193505050501580156106e4573d6000803e3d6000fd5b5060036000806101000a81548160ff0219169083600381111561070a57610709610c19565b5b021790555050565b60035481565b60025481565b600060019054906101000a900473ffffffffffffffffffffffffffffffffffffffff1681565b60015481565b60038081111561075d5761075c610c19565b5b60008054906101000a900460ff16600381111561077d5761077c610c19565b5b1461078757600080fd5b60003390506000600660008373ffffffffffffffffffffffffffffffffffffffff1673ffffffffffffffffffffffffffffffffffffffff16815260200190815260200160002054116107d857600080fd5b600060646002546107e99190610df5565b600660008473ffffffffffffffffffffffffffffffffffffffff1673ffffffffffffffffffffffffffffffffffffffff168152602001908152602001600020546108339190610d84565b600660008473ffffffffffffffffffffffffffffffffffffffff1673ffffffffffffffffffffffffffffffffffffffff1681526020019081526020016000205461087d9190610e26565b9050600047036108b25760026000806101000a81548160ff021916908360038111156108ac576108ab610c19565b5b02179055505b6000600560008473ffffffffffffffffffffffffffffffffffffffff1673ffffffffffffffffffffffffffffffffffffffff16815260200190815260200160002060006101000a81548160ff0219169083151502179055508173ffffffffffffffffffffffffffffffffffffffff166108fc829081150290604051600060405180830381858888f19350505050158015610950573d6000803e3d6000fd5b506000600660008473ffffffffffffffffffffffffffffffffffffffff1673ffffffffffffffffffffffffffffffffffffffff168152602001908152602001600020819055505050565b60008054906101000a900460ff1681565b600460009054906101000a900460ff1681565b600060019054906101000a900473ffffffffffffffffffffffffffffffffffffffff1673ffffffffffffffffffffffffffffffffffffffff163373ffffffffffffffffffffffffffffffffffffffff1603610a1857600080fd5b60001515600560003373ffffffffffffffffffffffffffffffffffffffff1673ffffffffffffffffffffffffffffffffffffffff16815260200190815260200160002060009054906101000a900460ff16151514610a7557600080fd5b6001600560003373ffffffffffffffffffffffffffffffffffffffff1673ffffffffffffffffffffffffffffffffffffffff16815260200190815260200160002060006101000a81548160ff02191690831515021790555034600660003373ffffffffffffffffffffffffffffffffffffffff1673ffffffffffffffffffffffffffffffffffffffff16815260200190815260200160002081905550565b60066020528060005260406000206000915090505481565b60008115159050919050565b610b4081610b2b565b82525050565b6000602082019050610b5b6000830184610b37565b92915050565b600080fd5b600073ffffffffffffffffffffffffffffffffffffffff82169050919050565b6000610b9182610b66565b9050919050565b610ba181610b86565b8114610bac57600080fd5b50565b600081359050610bbe81610b98565b92915050565b600060208284031215610bda57610bd9610b61565b5b6000610be884828501610baf565b91505092915050565b610bfa81610b86565b82525050565b6000819050919050565b610c1381610c00565b82525050565b7f4e487b7100000000000000000000000000000000000000000000000000000000600052602160045260246000fd5b60048110610c5957610c58610c19565b5b50565b6000819050610c6a82610c48565b919050565b6000610c7a82610c5c565b9050919050565b610c8a81610c6f565b82525050565b600060a082019050610ca56000830188610bf1565b610cb26020830187610c0a565b610cbf6040830186610c0a565b610ccc6060830185610c0a565b610cd96080830184610c81565b9695505050505050565b6000602082019050610cf86000830184610c0a565b92915050565b6000610d0982610b66565b9050919050565b610d1981610cfe565b82525050565b6000602082019050610d346000830184610d10565b92915050565b6000602082019050610d4f6000830184610c81565b92915050565b7f4e487b7100000000000000000000000000000000000000000000000000000000600052601160045260246000fd5b6000610d8f82610c00565b9150610d9a83610c00565b9250828202610da881610c00565b91508282048414831517610dbf57610dbe610d55565b5b5092915050565b7f4e487b7100000000000000000000000000000000000000000000000000000000600052601260045260246000fd5b6000610e0082610c00565b9150610e0b83610c00565b925082610e1b57610e1a610dc6565b5b828204905092915050565b6000610e3182610c00565b9150610e3c83610c00565b9250828201905080821115610e5457610e53610d55565b5b92915050565b600082825260208201905092915050565b7f5061796d656e7420616d6f756e7420697320696e636f72726563740000000000600082015250565b6000610ea1601b83610e5a565b9150610eac82610e6b565b602082019050919050565b60006020820190508181036000830152610ed081610e94565b9050919050565b7f4c6f616e2068617320616c726561647920657870697265640000000000000000600082015250565b6000610f0d601883610e5a565b9150610f1882610ed7565b602082019050919050565b60006020820190508181036000830152610f3c81610f00565b9050919050565b6000610f4e82610c00565b9150610f5983610c00565b9250828203905081811115610f7157610f70610d55565b5b9291505056fea264697066735822122099efbd5b1a4608a8c904285ffefd2f801d2a809bd3420a4c8dc066e2ad828e7064736f6c63430008130033a2646970667358221220476e75cc64b26e4ac7636be2a7d7bc350b74e3410bfaf5f47cbd70068e6a24c964736f6c63430008130033",
  "immutableReferences": {},
  "source": "// SPDX-License-Identifier: MIT\r\npragma solidity >0.7.0;\r\nimport './Credit.sol';\r\n\r\n\r\ncontract Main{\r\n\r\n    address public owner;\r\n      // User structure\r\n    struct User {\r\n        // Is the user currently credited.\r\n        bool credited;\r\n\r\n        // The adress of the active credit.\r\n        Credit activeCredit;\r\n\r\n        // Is the user marked as fraudlent.\r\n        bool fraudStatus;\r\n\r\n        // All user credits.\r\n        Credit[] allCredits;\r\n    }\r\n\r\n    // We store all users in a mapping.\r\n    mapping(address => User) public users;\r\n    address[] array;\r\n    Credit[] public credits;\r\n\r\n    constructor(){\r\n        owner = msg.sender;\r\n        array.push(msg.sender);\r\n    }\r\n\r\n     function applyForCredit(uint requestedAmount, uint repaymentsCount, uint interest ) public  returns(Credit _credit) {\r\n        // The user should not have been credited;\r\n        require(users[msg.sender].credited == false);\r\n\r\n        // THe user should not be marked as fraudlent.\r\n        require(users[msg.sender].fraudStatus == false);\r\n\r\n        // Mark the user as credited. Prevent from reentrancy.\r\n        users[msg.sender].credited = true;\r\n\r\n        // Create a new credit contract with the given parameters.\r\n        Credit credit = new Credit(requestedAmount, interest , repaymentsCount ,msg.sender);\r\n\r\n        // Set the user's active credit contract.\r\n        users[msg.sender].activeCredit = credit;\r\n\r\n        // Add the credit contract to our list with contracts.\r\n        credits.push(credit);\r\n\r\n        // Add the credit to the user's profile.\r\n        users[msg.sender].allCredits.push(credit);\r\n\r\n        // Log the credit creation event.\r\n        // LogCreditCreated(credit, msg.sender, block.timestamp);\r\n\r\n        // Return the address of the newly created credit contract.\r\n        return credit;\r\n    }\r\n\r\n    function getUserCredits() public view returns (Credit[] memory) {\r\n        return users[msg.sender].allCredits;\r\n    }\r\n\r\n     function setFraudStatus(address _borrower) external returns (bool) {\r\n        // Update user fraud status.\r\n        users[_borrower].fraudStatus = true;\r\n\r\n        // Log fraud status.\r\n        // LogUserSetFraud(_borrower, users[_borrower].fraudStatus, block.timestamp);\r\n\r\n        return users[_borrower].fraudStatus;\r\n    }\r\n\r\n    function getCredits() public view returns(Credit []memory){\r\n        return credits;\r\n    }\r\n    \r\n\r\n}\r\n\r\n\r\n",
  "sourcePath": "C:\\Users\\Chaitnya\\OneDrive\\Desktop\\block-chain\\testing\\contracts\\Main.sol",
  "compiler": {
    "name": "solc",
    "version": "0.8.19+commit.7dd6d404.Emscripten.clang"
  },
  "schemaVersion": "3.4.13",
  "updatedAt": "2023-03-27T08:23:43.167Z",
  "networkType": "ethereum",
  "devdoc": {
    "kind": "dev",
    "methods": {},
    "version": 1
  },
  "userdoc": {
    "kind": "user",
    "methods": {},
    "version": 1
  }
}